:1000000000000120750300005D0300005F03000095
:1000100061030000630300006503000000000000AE
:100020000000000000000000000000006703000066
:1000300069030000000000006B0300006D03000076
:100040006F0300006F0300001D1600006F03000027
:100050006F0300006F0300006F03000091160000A3
:10006000311B00006F0300006F0300006F030000EE
:100070006F0300006F0300006F0300006F030000B8
:100080006F0300006F0300006F0300006F030000A8
:100090006F0300006F0300006F0300006F03000098
:1000A0006F0300006F0300006F0300006F03000088
:1000B0006F0300006F03000000000000000000005C
:1000C0006F0300006F0300006F0300006F03000068
:1000D0006F0300006F0300006F03000000000000CA
:1000E0000000000000000000000000000000000010
:1000F0000000000000000000000000000000000000
:1001000000000000000000000000000000000000EF
:1001100000000000000000000000000000000000DF
:1001200000000000000000000000000000000000CF
:1001300000000000000000000000000000000000BF
:1001400000000000000000000000000000000000AF
:10015000000000000000000000000000000000009F
:10016000000000000000000000000000000000008F
:10017000000000000000000000000000000000007F
:10018000000000000000000000000000000000006F
:10019000000000000000000000000000000000005F
:1001A000000000000000000000000000000000004F
:1001B000000000000000000000000000000000003F
:1001C000000000000000000000000000000000002F
:1001D000000000000000000000000000000000001F
:1001E000000000000000000000000000000000000F
:1001F00000000000000000000000000000000000FF
:10020000354936480A1A02D0072291438D463449AF
:1002100034480A1A06D00722914381F30988022242
:1002200082F3148830483149314A00F044F83148AB
:100230003149324A00F03FF831483249324A00F041
:100240003AF832483249334A00F035F832483349F7
:10025000334A00F030F833483349344A00F02BF881
:1002600033483449344A00F026F8344834490022EF
:1002700000F02CF833483449002200F027F83348C6
:100280003349091A082902DB002202604160314A21
:1002900090471F481F49884205D00268043003B4C4
:1002A000904703BCF7E700208646EC46002000217B
:1002B000294A9047FEE7884207D0521A05D00378B2
:1002C00001300B700131013AF9D17047884202D0F8
:1002D00002700130FAE770470000012000E00020C2
:1002E0000000012000000120442F00000000002039
:1002F00034000020D0030000D0030000C22A000018
:10030000442F00000000002000000020282B0000E7
:10031000282B0000282B0000282B0000282B000091
:10032000282B0000282B0000282B0000422F000063
:10033000782F00003400002034000020340000201A
:10034000D5060020D8060020D8060020D8060020B8
:10035000D82600209D03000049260000FEE7FEE7A6
:10036000FEE7FEE7FEE7FEE7FEE7FEE7FEE7FEE765
:1003700000F002B8FFF7FCBF0F484FF007018843B9
:1003800085460E4880470E48016841F470010160BF
:10039000BFF34F8FBFF36F8FFFF732BF09480A4992
:1003A0000A4A884207D0521A05D0037801300B70F0
:1003B0000131013AF9D1704700000120E526000023
:1003C00088ED00E0282B0000000000200000002045
:1003D000F0B595B01D46164608460C4600F0D4FF11
:1003E0001A9B0D93CDE9086500252B46082205A927
:1003F00020460A958DF82C500C9500F0E1FF079BE4
:100400000293069B03939DF814308DF8115003F06E
:100410000302012A1DD1BDF81420059DC3F3C203B8
:10042000C2F383168DF81030B20008230EA92046BF
:1004300000F0C6FFC5F3952508AB0093324602AB2A
:100440000EA9284600F096FB204600F0A1FF15B04B
:10045000F0BD022AF8D1BDF81650C3F3C203C5F3AC
:1004600089158DF810300827082D2E4628BF08263C
:100470003B4632460EA9204600F0A2FFAD1B08AB5A
:1004800002AA31460EA8374400F0D8FB002DEBD16C
:10049000DAE70000014B01221A7070477500002056
:1004A0007047000070B50E4D06460FCD88B06C4603
:1004B0000FC495E80F00002E84E80F00094A0A488F
:1004C0004FF0060308BF00226946009301F004F8CC
:1004D00008B100F013FC054B1E7008B070BD00BFE2
:1004E000282B0000950400000000002034000020AC
:1004F00007B5044B0093044A4023FFF769FF03B09C
:100500005DF804FB0D0500003500002038B50D48EE
:100510000D4C0E4D002323700378EB5CD2B263B117
:10052000043001F089FF08B100F0E8FB084B1A78AD
:1005300012B12378002BFBD038BD0C3001F02AFD1E
:10054000F1E700BF00000020750000202006002019
:100550003400002008B50848084A0378D35C3BB152
:10056000043001F0CDFEBDE808400020FFF79ABF3F
:100570000C3001F099FCF6E7000000202006002076
:100580000120FFF78FBF000008B5FFF7F9FF04480F
:10059000042100F059FA034B01225A7108BD00BF33
:1005A000042B000014000020037813F0040216D07E
:1005B00003F00303012B03D0022B09D00120704765
:1005C0000A6800880232C0F3831002440A60F5E72B
:1005D0000B684288023303EB92130B60EEE7104680
:1005E000704700002DE9F04FDFF810A10F4685B0ED
:1005F0000446861C0020154600F0D6FBDAF80420DD
:100600003A60DAF8083003F580739B1A0AF21C4747
:100610000AF583690AF21448B34219D30020002D69
:1006200068D004F00F039B0143F0050363F30F0050
:10063000DAF80430DAB2033233444AF822000020F8
:10064000CAF8043000F0B2FB012005B0BDE8F08F1D
:100650000121384600F0CFFB484600F0E4FB40465D
:1006600000F0E1FBDAF808000090C0B203300AEBBA
:1006700080006946FFF798FF009B30BBDAB20AEBB7
:100680008202D16801919A1C0133DBB20AEB830329
:100690000092D3F80CB001F00303012B22D0022BFF
:1006A00015D08346404600F0C1FB10B1009BCAF84C
:1006B00008305946384600F09EFBDAF80830DAF880
:1006C000042003F580739B1AA6E7D8B2CEE7BDF8E5
:1006D0000630C3F3891303334FEA1B4B02EB93033A
:1006E0000093DFE7BDF80430C3F383134FEA1B4BDD
:1006F0001344F5E7A40544F0060099E748010020FB
:10070000064B074810B500221A7000F0F6FD0446AB
:1007100010B9044800F08EFE204610BD48010020AC
:10072000142B00007C2B000030B50A4C71B10A4A32
:100730000A49121BD20800239A4201D1002030BD81
:1007400031F82350854202D00133F5E7034654F8CF
:100750003300F4E7C42A0000042B0000000000204E
:10076000094B013903EBC000032909D8DFE801F088
:100770000A020406042070470079704740797047E8
:100780000020704702207047C42A0000034BD3E9C1
:100790000130C31A58425841704700BF4801002039
:1007A0002DE9FF41FFF7F2FF0546002840F0E98000
:1007B000754CC4F81804BFF34F8FA3680093DBB2E5
:1007C000033304EB83006946FFF7EEFE009B18B18C
:1007D000D4F81824002A5AD0DAB2991C013304EB59
:1007E0008202DBB204EB8303D268DB68029302F07F
:1007F0000303022B0192009154D1BDF806306348E7
:10080000C3F38917502F3E4628BF502606F1080132
:1008100066F38F13C1F30901ADF8063000F085FDD2
:100820000546002800F0988000F0AEFD0023082265
:1008300001A9284600F0BAFD0099CB43DBB2013391
:10084000C9B20331B6EB830F4FEA830204EB810197
:1008500025D95FFA82F80823A6EB0806284600F09F
:10086000A5FDF6B208F10803494903F0FC0332463E
:10087000284600F09BFD009B033703EB970700978A
:10088000D4F81834002B43D1D4F8106453E06268D4
:100890009A4294D8A260284604B0BDE8F0810823AB
:1008A0003246E5E7012B57D1BDF804303748C3F392
:1008B0008311062928BF062161F38913023101F053
:1008C0000F018900ADF8043000F02FFD0546002827
:1008D00042D000F059FD0023082201A9284600F06B
:1008E00065FD0026BDF80420C2F38312B3009642D2
:1008F00003F10803C4D200994A1CC9B20331009223
:1009000004EB81010422284600F050FD0136E9E79E
:10091000284600F03DFDFFF739FF80F00100C5B229
:10092000B9E7F3685B7923B1336829461B68304621
:100930009847F3681E68002EF3D1284600F028FD82
:10094000304600F031FAD4F818340BB9009BA3609C
:10095000002000F02BFADEE7D4F8104454B90D4B18
:100960000D480E49C01AC008000440F0020000F013
:100970005DF8D0E7236820469B689847E3681C68C9
:10098000ECE7002587E700BF48010020142B00009A
:1009900054010020C42A0000F42A0000652B000046
:1009A0002DE9F34704460E46924601A90122184656
:1009B0009946FFF717FE1B4F10B3019D4FF000083B
:1009C000AA1CC84508EB020123D11748002100F0FA
:1009D000EFF980F31000000440EA1440E4006B1CBF
:1009E00004F03804DBB2EDB244F0010407EB8303FA
:1009F000033544EA881444EA8624D86047F8254041
:100A00003B781BB1FFF7CCFE0028FBD102B0BDE85C
:100A1000F087C9B207EB81015AF82830CB6008F1A2
:100A20000108CEE7480100206405002000231A4693
:100A3000FFF7B6BF07B50123019201AAFFF7B0FF88
:100A400003B05DF804FB000030B50F4CD4F810245F
:100A500003460020114631B9D96808714AB9C4F873
:100A600010340A6030BDC9680D79854206D0096826
:100A7000F1E7D26814680C601360F3E701300A28CC
:100A8000E8D14FF0FF30EDE74801002038B5084BC2
:100A90000125D3F810441D7004B938BDE3685D71B9
:100AA000236820465B689847E3681C68F4E700BF4A
:100AB0004801002030B5C38885B004460D4633B1E7
:100AC000144A00921449154A284600F009FA217A7E
:100AD00005291DD0637A4BB1A088FFF741FE104B6A
:100AE000104953F82020284600F0FAF9227A0E4BDC
:100AF000A08853F8222003920021FFF715FE039AE5
:100B00000A490346284605B0BDE8304000F0E8B980
:100B100005B030BDA82B0000902B0000882B0000F2
:100B2000142C0000AD2B0000382C0000B02B00006E
:100B300007B503460846197A052911D05B7A2BB10F
:100B4000094A0A49019000F0CBF90198084901903F
:100B500000F0C6F9019803B05DF804EB00F0B5B9F8
:100B6000002AF8D0F2E700BFA82B0000AD2B000050
:100B7000A52B00002DE9F04385B01F460C9D0023F6
:100B800095F80C902B7306460C469046294638463D
:100B9000FFF790FFB8F1060F09D8DFE808F004125C
:100BA000181F283340003146284600F099F90022EA
:100BB00029463846FFF7BCFF85F80C9005B0BDE824
:100BC000F08322683146284600F08AF9EFE7D4E93D
:100BD00000233146284600F083F9E8E7A368009334
:100BE0003146D4E90023284600F07AF9DFE7E368CC
:100BF0000193A36800933146D4E90023284600F00E
:100C00006FF9D4E723690293E3680193A368009323
:100C10003146D4E90023284600F062F9C7E763694A
:100C2000039323690293E3680193A3680093314619
:100C3000D4E90023284600F053F9B8E708292DE944
:100C4000F74F80460E4617461C463DD800251B7BB5
:100C50002573214610460193FFF72CFFDFF88CA087
:100C6000DFF88CB0AE4232D918F80520594620463C
:100C700000F036F90135082DF4D11B49DFF874A0D6
:100C8000DFF874B0204600F02BF94FF000094E4514
:100C900024D918F809507E2D1ED8284601F0B0FE40
:100CA000002814BF2A462E225946204600F018F983
:100CB00009F10109B9F1080FE9D1012221463846AD
:100CC000FFF736FF019B237303B0BDE8F08F514659
:100CD000204600F005F9CDE72E22E5E751462046F3
:100CE00000F0FEF8E4E700BFC42B0000C02B0000BA
:100CF000BA2B0000C22B0000C62B00001FB500213C
:100D0000039001AA44F20100CDE9011100F004F8BA
:100D100005B05DF804FB000038B572B6FFF7B6FE0B
:100D2000FFF73EFD0028FBD1104B114C114D12492D
:100D3000E41AE408240444F00100FFF777FED5F834
:100D4000F030DB0700D500BE0C4944F00200FFF78D
:100D50006DFEBFF34F8FEA68094B02F4E062134364
:100D6000EB60BFF34F8F00BFFDE700BFC42A000058
:100D7000F42A000000ED00E04C2C0000582C00008C
:100D80000400FA0572B6024A136801331360704713
:100D900000060020034A1368013B136003B962B6E2
:100DA000704700BF00060020FFF7ECBFFFF7F2BF5F
:100DB00010B5034653E8000F0A4643E8002494F0B8
:100DC000000FF7D110BD10B5034653E8002F42EADB
:100DD000010043E8000494F0000FF6D110BD10B5F7
:100DE000034653E8000F00EA010243E8002494F0B0
:100DF000000FF6D110BD10B5034653E8002F02EBEB
:100E0000010043E8000494F0000FF6D110BD10B5C6
:100E1000034653E8002FA2EB010043E8000494F0DE
:100E2000000FF6D110BD0121FFF7CDBF0021FFF764
:100E3000D6BF10B590B1D0E9012301689B1ADBB28F
:100E40000A60013BDBB2FF2B026802D10020107167
:100E500010BD11684C1C14600B70F2E70E20F7E710
:100E600038B504460020FFF79FFF226863681168C9
:100E7000994213D9481E106011F8013CE568218A97
:100E800001FB0355A36811791B1ADBB2994200D20A
:100E900013710020FFF78AFF284638BD0025F8E7C8
:100EA00038B5054600200C46FFF77EFF2A68136818
:100EB000591C1160E968641A298AB4FBF1F41C70AA
:100EC000BDE838400020FFF771BF826810B50446C6
:100ED0002AB143690168006998470023A36010BDE7
:100EE0000EB403B5039921B104AB01AA019300F03C
:100EF00077F802B05DF804EB03B070470A2938B503
:100F000004460D4602D10D21FFF7F8FFA3682268C1
:100F1000591CA160D554D4E901329A4204D3204629
:100F2000BDE83840FFF7D1BF38BD00002DE9F84FCC
:100F30009846DDE90A43154682460F460A464FF0B9
:100F40000109AA420FD2C14538BFC14613F0010BB7
:100F500001D16CB900240126B8F1010F1BD908F1A9
:100F6000FF386E43F8E709F10109B2FBF5F2E8E753
:100F70009B070ED5B8F1000F0CBF30262026A145E7
:100F8000E9D2013C31465046FFF7B8FF002CF6D1BC
:100F9000E0E72026F3E7B7FBF6F39D42E1D9DFF85F
:100FA0003C80B7FBF6F3504618F8031006FB1377A6
:100FB000FFF7A4FF3346AB42B6FBF5F6F1D2BBF127
:100FC000000F02D00CB1A14501D3BDE8F88F20215C
:100FD0005046013CFFF792FFF4E700BF652C00008C
:100FE0002DE9F74F054617468846002900F03E8157
:100FF00018F8011B49B92B7B002B00F037812846DC
:1010000003B0BDE8F04FFFF760BF252940F0B7807F
:10101000002698F800302D2B424608F1010823D015
:10102000302B24D02B2B25D000242A2B02F10101B8
:1010300023D13B681A1D1B683A601C440A4613788A
:101040002E2B26D101324FF0000A104610F8011B5A
:10105000A1F1300CBCF1090F1DD80A2303FB0A13C0
:10106000A3F1300A0246F0E746F00106D1E746F068
:101070000206CEE746F00406CBE711F8013CA3F1E7
:1010800030000928DBD80A2202FB0434303C0A462F
:10109000CBE74FF0000A12F8011B01F0FB006828B3
:1010A0009046F8D0782909D86F290CD8632962D0E6
:1010B00022D8252963D0582900F0888098F800307C
:1010C000002B95D197E770390829F7D801A353F879
:1010D00021F000BF47120000BD100000BD1000004D
:1010E000DD110000BD100000BB110000BD100000AC
:1010F000BD100000CD110000642901D06929DDD1A7
:101100003A68D2F80090111D89EAE9723960A2EBC1
:10111000E9724FF0010B092A35DCD34538BFD346BD
:101120002CB1B9F1000F01DB720700D5013CB30708
:1011300002D5BAF1000F03D0F00701D44CBB002454
:10114000B9F1000F2DDAC9F100092D212846FFF76A
:10115000D5FE06F00302022A04D1BAF1000F01D134
:101160001CBB0024CDE9004653460A2249462846C6
:10117000FFF7DCFEA2E73B681A1D19783A602846A3
:10118000FFF7BCFE9AE70A230BF1010BB2FBF3F267
:10119000C1E7A345D4D220212846013CFFF7AEFE8B
:1011A000CCE77107D5D52B21D0E7A345DAD2302182
:1011B0002846013CFFF7A2FED2E73968CDE9004698
:1011C0000A1D3A6053460A220968D0E739680A1DA9
:1011D0003A60CDE9004653461022F5E73B681A1DF8
:1011E0003A6016F00106D3F8009024D1B9F1000F4F
:1011F00003D0484601F035FC0646B4421DD809F13B
:10120000FF3919F8011F00293FF458AF2846FFF7AE
:1012100075FEF6E728460136FFF770FE19F806104E
:101220000029F7D1A642BFF449AF20212846013C4E
:10123000FFF764FEF6E70026F0E720212846013C90
:10124000FFF75CFED9E73B681A1D3A60302128465B
:101250001C68FFF753FE78212846FFF74FFE002257
:101260000823CDE900322146102280E703B0BDE813
:10127000F08F00BF2DE9F84FB0F806A04579D2F8FD
:1012800000B09DF828900AFB05F5043D88460BEB5D
:101290000301A94203F1040488BFA5EB030BB4FBCF
:1012A000FAF607460AFB1644C2F800B04EB9AAEB9C
:1012B00004055D4528BF5D46BBF1000F04D1BDE8C4
:1012C000F88F3F68013EF1E7043408EB06003C4428
:1012D0002A46B9F1000F0DD02146ABEB050B01F00A
:1012E00097FBDA452E443F6855464FF0000428BF6F
:1012F0005D46E1E701462046EFE7FFF79ABDF8B506
:1013000046790146721E0546002393422D6803D399
:101310000024A64202D8F8BD0133F6E70F6828463C
:10132000FFF7BEFD01343946F3E72DE9F843068A9D
:10133000CD1C0746FFF794FD043E35440446B5FB3B
:10134000F6F5F0B14FF48073EDB28380C680013DB5
:10135000076081464FF00008A84512D23846FFF7D3
:101360007FFD064648B163790133637108F10108D6
:10137000C9F8000007608146EEE72046FFF7BFFF8F
:1013800034462046BDE8F88301210430FFF733BD21
:1013900010B5012104460430FFF739FDC0B220B971
:1013A0002046BDE81040FFF7AABF10BD1FB503924D
:1013B0000022009203AAFFF75DFF05B05DF804FB71
:1013C0001FB503920122009203AAFFF753FF05B055
:1013D0005DF804FB064B10B500241C70054B1C6027
:1013E000BFF35F8F0449054800F02DF8204610BD7B
:1013F0000C06002010060020802C000004060020AF
:1014000008B50020FFF7D0FCF1EE103A23F09F035F
:10141000E1EE103ABFF35F8F054B4022C3F8842101
:101420000020FFF7C3FC20BF40BF20BF08BD00BFA6
:1014300000E100E0836800225A60C3E904229A6058
:10144000DA601A6070470B684A684360934208BFCD
:101450000023016008BF436070470000034B187809
:1014600010B901221A7070478520704714060020B9
:101470001FB503788DF800304368019383688DF8B9
:101480000830C368054A0393054B684653F821307A
:1014900052F82110984705B05DF804FB18060020AB
:1014A0001C0600201FB503788DF8003043680193B7
:1014B00083688DF80830C368054A0393054B684676
:1014C00053F8213052F82110984705B05DF804FB1D
:1014D000180600201C060020F0B5194B90F800C03B
:1014E00091F81DE043F82C20164B16460A6943F884
:1014F0002C20154B03F80CE00C4607460FCC89B0A6
:101500006D460FC594E80F0085E80F00CDF810C0B8
:10151000BEF1000F09D0002E0C4A694608BF3246C2
:10152000381D00F02BFE09B0F0BD002E084A6946B8
:1015300008BF324607F10C0000F002FCF3E700BFE1
:101540001C06002018060020200600207114000050
:10155000A51400002DE9F84F134DDFF85080074621
:101560004FF0000A04264FF001095FFA8AFB0020C1
:1015700009FA0BF4FFF718FC2C420AD0D8F8003017
:1015800014EA030201BF2343C8F8003087F800B013
:1015900016460020FFF70AFC1EB1A5430AF1010A16
:1015A000E3D13046BDE8F88FFFFF0F00240600208E
:1015B00010B5A1B19AB101238340C3F3130484B1E0
:1015C0000A4C246823420ED0C00000F1804000F590
:1015D000F830C0F81015C0F81425002010BD0E20FA
:1015E000FCE70720FAE70820F8E700BF2406002000
:1015F000012303FA00F0C0F313031BB1054B1B6872
:10160000184204D0044BC3F804050020704708209A
:10161000704700BF2406002000F00140014B1B680A
:10162000184700BF2806002038B50B4B98420C46DF
:1016300001D0002038BD0020FFF7B6FB074B1D7915
:1016400015B901221C601A710020FFF7AFFB002DB5
:10165000EFD01120EEE700BF002000402806002058
:10166000034B984201BF034B00221A601A71704766
:10167000002000402806002000F1804000F5E040F6
:10168000002382B0036003680193019B02B070479E
:10169000F0B5524B524CD3F8043185B0002B3DD0FD
:1016A00094F82E204FF48270FFF7E6FF2AB394F8E7
:1016B0002F3013BB494AD2F80031002B32D04FF4FF
:1016C0008070FFF7D9FF638B94F82D00834250D9C7
:1016D00021891B1A9BB289B26383CB1A616801EB23
:1016E0004303C2F82C36C2F830064FF48270FFF77D
:1016F000C3FF3A4B01225A6014E0636802932389C6
:10170000ADF80C30E36800218DF8041033BB23746E
:10171000236801A89847002384F82F3094F82E30CE
:10172000002BC7D12D4BD3F810315BB14FF488702B
:10173000FFF7A2FF0023237402238DF8043001A8D1
:1017400023689847254BD3F81431EBB14FF48A70D6
:10175000FFF792FF0023237405B0F0BD208B608358
:1017600063602081E160002AD2D11C4B01221A6003
:10177000CEE7BAD1E368012184F82F1013B100211C
:101780006183AEE76383B0E766694FF000470125E8
:10179000002EE1D0B6FA86F227FA02F34632920022
:1017A00026EA030602F1804303F5E0431B68002BA1
:1017B000EED01046A2F58C72FFF75EFFD30882F0E0
:1017C0000402C2F380028DF808308DF804502368BB
:1017D0008DF8092001A89847DAE700BF00700040A3
:1017E0003006002038B5204A92F82C300446002BF1
:1017F00037D111601D490078C1F8F0056078C1F853
:10180000F4050125E078137482F82D30536182F8D5
:101810002F306FF0004382F82E0082F82C504FF4E6
:101820008270C1F80833FFF727FF4FF48070FFF78D
:1018300023FF4FF48A70FFF71FFFA3780C485B016A
:10184000DBB280F80733802303600223C1F804333E
:1018500092F82E300BB1C1F80453C1F800550020A6
:1018600038BD0820FCE700BF3006002000700040B3
:1018700000E100E070B52A4B1A7C02F0FF05002A57
:101880004BD10A79012A9CBF264CC4F8005500F1BF
:101890000C0503EB4504247924B993F82D40013459
:1018A00083F82D4003EB4503CC790D7A8E781C71BB
:1018B0005D714B7836021B0106F4E06603F03003DD
:1018C00033430E7806F003063343CE78360306F42E
:1018D00080563343160406F4E02633434E79897963
:1018E000360506F480160906334301F080710B4378
:1018F0000C4901EB0016000100F1804000F5E040CA
:10190000012AC6F81835C0F81455C0F8104502D899
:101910000123C1F80035002000E0112070BD00BF98
:101920003006002000700040054B93F82E30002B4D
:1019300014BF0020042000F1804000F5E040704713
:101940003006002070B5264A264B05461220C2F804
:1019500008031C7C022C03D1C2F80403112070BDC3
:10196000187C01281CD1D86818B10223C2F80433AE
:10197000F4E7DD60198393F82E305BB9D2F80031BB
:10198000002BFBD04FF48070FFF776FEC2F82C5688
:10199000C2F83016124B0222C3F804230020DEE7FF
:1019A000022093F82E40C2F80403012600201E7482
:1019B0005D601981D8603CB1598393F82D30C2F82D
:1019C0002C56C2F83036CAE7C2F82C564FF4807055
:1019D000C2F83016FFF750FE16602046BFE700BF82
:1019E0000070004030060020F7B506792F4D0C231B
:1019F0007343EF183C7A002C55D1EA504B687B605A
:101A0000477903682246A446D4B2A7423CD8CA7894
:101A100043F307345201002CC3F30733D2B23DDB4A
:101A2000234F07EB040C8CF800230122640903F018
:101A30001F0302FA03F347F8243003684A78D3F807
:101A4000040502F0030220F003000243C3F804255A
:101A5000D3F808058A7820F0030002F0030202435D
:101A6000C3F80825D3F810050A7820F00F0102F01A
:101A70000F020A43C3F810250C2303FB065501236C
:101A80002B72002003B0F0BD940004F5A074013265
:101A900043F804C01C590194019CB5E7054C03F0C0
:101AA0000F03E254C9E70820ECE700BF60060020FE
:101AB00000E100E014ED00E0036801221A60027901
:101AC000034B0C2101FB023302221A72704700BF44
:101AD0006006002037B54FF4803400688C407BB13D
:101AE0008B0003F5A0730025C550C3580193019BDB
:101AF000C0F8044301F5A87140F8212003B030BDBF
:101B0000C0F80843F6E770B4046840F20116D4F850
:101B100000528E4025EA0605C4F80052D4F800525F
:101B20002B43C4F800329DF80C3070BCFFF7D2BFD5
:101B30002DE9F341104C114F114E00254FF4803820
:101B4000236883B1D7F8043308FA05F21A420AD0A1
:101B50000023236023680193A4F50040019B80B219
:101B6000D6E9003198470135042D04F10404E7D18A
:101B700002B0BDE8F08100BF40810040008000401D
:101B8000600600200023435082B043580193019B1C
:101B900002B070470A4610B54FF48E71FFF7F2FF9E
:101BA000136A9168C95C136A01331362C0F81C158B
:101BB00010BD8B690A4610B54FF4847123B9FFF745
:101BC000E1FFD0F8183510BDFFF7DCFF536AD1688C
:101BD000D0F81805C854536A01335362F3E7000084
:101BE0001FB501238DF80030044BCDE90110D3E976
:101BF00000126846904705B05DF804FB6C060020B3
:101C000030B54D4DD5F804339A0585B051D5D5F88A
:101C10002431002B4DD04FF492712846FFF7B2FFCC
:101C20004FF40173C5F80833444B93F829200AB9DF
:101C300001226A60404902228DF80020D1F88024F8
:101C4000C1F8802403929A690292DA680192002214
:101C5000C3E906226846D3E9001290473648D0F817
:101C60001C315BB1354A5169136A99424DD992F8DA
:101C70002830002B49D11146FFF78CFF2E48D0F8B1
:101C80004431002B56D04FF4A271FFF77BFF2B4B52
:101C900093F829200AB1012202609A69002A49D0EA
:101CA000586AD96800229A6105B0BDE83040FFF754
:101CB00097BFD5F804335B07D0D5D5F80831002B92
:101CC000CCD01E4C1C482146FFF773FF636AA26903
:101CD0009A42C3D1E369E1684BB1A3612369E36030
:101CE0000023606AE3616362FFF77AFFB6E794F866
:101CF00029300BB901236B600F4B4FF40172C3F80D
:101D000008230023606AA361EEE70B484FF48E714D
:101D1000FFF738FF5369002BB0D0516902910023BF
:101D200091688DF80030019153616846D2E9001343
:101D30009847A3E705B030BD002000406C060020A6
:101D40002DE9F843534D90F804802C2303FB0853EE
:101D5000064693F82A300C469146002B40F09680B8
:101D60004D490068FFF760FC0746002840F090806E
:101D700022683068511C0BD04FF0A04101239340E2
:101D8000C1F8083502F5E0734FF0030C41F823C0A9
:101D900061684B1C1FBF01F5E0734FF0A04C4FF082
:101DA000000E4CF823E0A369C0F8243594F814C061
:101DB000637DBCF1010F4CEA0303C0F86C35C0F839
:101DC0001415C0F80C251DD1A268531C1FBF02F5C5
:101DD000E0734FF0A0414FF0000C41F823C0E368DE
:101DE000591C0BD04FF0A04C01219940CCF808159C
:101DF00003F5E0714FF0030E4CF821E0C0F8083510
:101E0000C0F810252C2202FB08F2AB18C3F804908E
:101E10002369AB50B9F1000F20D04FF48E71247FAD
:101E2000FFF7B0FE4FF4A2713068FFF7ABFE3268E7
:101E30001A4BC2F80433130B42F307326101002A34
:101E4000C9B21EDB1648841884F800130121520918
:101E500003F01F0301FA03F340F822303368042231
:101E6000C3F800252C2303FB08530022C3E90622F4
:101E700083F829205A61012283F82A203846BDE8D8
:101E8000F883084A03F00F03D154E7E70827F5E782
:101E90001127F3E76C060020011C000080000200FF
:101EA00000E100E014ED00E0F8B503680579304C7E
:101EB0000022C3F800252C2202FB05425268A2B181
:101EC0002C4AC3F808231A0B43F30733002B0CDB0F
:101ED00002F01F015B0901228A402033264941F8A4
:101EE0002320BFF34F8FBFF36F8F0068D0F80C65CE
:101EF000D0F81415D0F80835D0F810254FF0FF377A
:101F0000BE42C0F8147518BF06F5E076C0F80C752F
:101F1000C0F80875C0F810751EBF4FF0A0474FF00D
:101F2000020C47F826C04E1C1FBF4FF0A04601F51B
:101F3000E071022746F82170511C1FBF4FF0A041ED
:101F400002F5E072022641F822605A1C1FBF03F519
:101F5000E0734FF0A042022142F82310FFF780FB0C
:101F60002C2303FB0544002384F82A306360F8BD6A
:101F70006C0600208402020000E100E00279044BBC
:101F80002C2101FB02335869003818BF012070472B
:101F90006C0600202DE9F84F064690F8048089462B
:101FA0009246FFF7EBFF044600283CD1204F2C253A
:101FB00008FB057B4FF48E71CBF814A0CBF808908A
:101FC000CBF820008BF828003068FFF7DBFD306885
:101FD000012383605946FFF7DDFDDBF804305D46E1
:101FE0001BBB3068DBF814402B6A9C4211D8336865
:101FF000D3F81C21002AFBD00122DA6000202C2318
:1020000003FB087700237B61BDE8F88F95F8283043
:102010003BB9D0F81C31002BF8D05946FFF7BAFD78
:10202000E2E70F20EBE71120EEE72046ECE700BFE8
:102030006C0600200023435082B043580193019B5B
:1020400002B070471FB501238DF80030044BCDE975
:102050000110D3E900126846904705B05DF804FB13
:10206000980600207FB5434AD2F82461002E60D044
:1020700010464FF49271FFF7DDFF02238DF8003018
:10208000D2F88034C2F880340393D2F83C350293FE
:10209000394BDA6801920022C3E906226846D3E987
:1020A000001290473348D0F8443173B14FF4A27115
:1020B000FFF7C0FF304B9A693AB10022C3E906220C
:1020C000D968D0F83C05FFF7BDFF2A48D0F8203189
:1020D000ABB14FF49071FFF7ADFF0123C360264B06
:1020E0005A6962B1D0F84C150291002299688DF8B6
:1020F000002001915A616846D3E9001290471D48BB
:10210000D0F858319BB14FF4AC71FFF793FF1A4BE5
:102110005A6962B1D0F84C150291002299688DF885
:10212000002001915A616846D3E90012904704B03B
:1021300070BDD2F81031002BB4D04FF48871104626
:10214000FFF778FF0C4BD2F83C0599698842A9D17A
:10215000DC69D96864B1D2F8005225F02005C2F8D4
:1021600000521A699C61DA60DE61FFF76BFF99E744
:102170009C61FAE700200040980600202DE9F84312
:102180005A4E90F80480242303FB0863044693F816
:1021900020300D469146002B40F0A3805449006842
:1021A000FFF742FA0746002840F09D802A68206821
:1021B000511C0BD04FF0A04101239340C1F80835CA
:1021C00002F5E0734FF0030C41F823C069684B1C23
:1021D0001FBF01F5E0734FF0A04C4FF0000E4CF81C
:1021E00023E0AB69C0F8243595F814C06B7DBCF1D1
:1021F000010F4CEA0303C0F86C35C0F80C25C0F899
:1022000014151DD1AA68531C1FBF02F5E0734FF0CF
:10221000A0414FF0000C41F823C0EB68591C0BD0D3
:102220004FF0A04C01219940CCF8081503F5E0715E
:102230004FF0030E4CF821E0C0F80835C0F8102527
:10224000242202FB08F2B318C3F804902B69B350A0
:10225000B9F1000F2FD04FF488712A7FFFF7EAFE03
:1022600020684FF49071FFF7E5FE20684FF49271FB
:10227000FFF7E0FE20684FF4A271FFF7DBFE4FF49A
:10228000AC712068FFF7D6FE23681A49C3F804131F
:10229000190B43F307335201002BD2B21CDB164853
:1022A000C51885F8002301225B0901F01F0102FA1D
:1022B00001F140F8231023680822C3F800252423E5
:1022C00003FB08660023C6E906337361012386F821
:1022D00020303846BDE8F883084B01F00F015A540E
:1022E000E9E70827F5E71127F3E700BF9806002084
:1022F000652000001003420000E100E014ED00E062
:10230000F8B5444C0579242303FB054302465B687A
:102310000068ABB1404BC0F8083340F30733002BE3
:102320004FEA10310CDB01F01F065B090121B140BF
:1023300020333A4E46F82310BFF34F8FBFF36F8F11
:10234000D0F8003223F02003C0F80032242303FB2E
:1023500005439B692BB14FF4A271FFF76BFE01237C
:1023600043604FF4AC71FFF765FE0123C360242383
:1023700003FB0543D0F858110029FBD0996919B126
:10238000D0F844110029F5D00023C0F800351368B7
:10239000D3F80C75D3F81465D3F80825D3F81015C5
:1023A0004FF0FF3C6745C3F80CC518BF07F5E07751
:1023B000C3F814C5C3F808C5C3F810C51EBF4FF055
:1023C000A0434FF0020C43F827C0771C1FBF4FF00B
:1023D000A04306F5E076022743F826704E1C1FBF87
:1023E00001F5E0714FF0A043022643F82160531C31
:1023F0001FBF4FF0A04302F5E072022143F8221004
:10240000FFF72EF9242303FB0544002384F8203032
:102410006360F8BD980600201003420000E100E070
:102420000279044B242101FB02335869003818BF9C
:10243000012070479806002001F06043B3F1005F6F
:102440002DE9F0470646884692463BD190F8049025
:10245000FFF7E6FF0446002836D11D4F30682425DB
:1024600005FB09754FF49071C5F814A0C5F80880F4
:10247000FFF7E0FD4FF4AC713068FFF7DBFD336828
:102480006A69A968C3F84415C3F8482501229A600F
:102490006A68DAB9D3F82021D3F858011AB90028AC
:1024A000F8D00F2007E00028FBD10122DA60D3F832
:1024B0005821002AFBD0242303FB097700237B61EA
:1024C000BDE8F0871020FBE71120F9E72046F7E789
:1024D00098060020704700002DE9F041037805467A
:1024E00013BB40680521FFF72DFA08B1FEF706FC83
:1024F0000E480F4C0F4F10493A68DFF84080241AFD
:10250000E408240444F003042046FEF793FA00266E
:102510006B6841469A5F20460236FEF78BFA0A2E18
:10252000F6D13B6801333B60BDE8F081C42A00006E
:10253000F42A0000BC060020AB2C0000BD2C0000DB
:102540001FB5FEF78BFF08B1FEF7D8FB174A1848F6
:102550000023CDE9022302A9164AFFF745FA08B184
:10256000FEF7CCFB144B1548D3F810250021D2B24E
:1025700020FA02F2009101230D48FFF7C4FA0C483B
:10258000FFF79AFAFFF7D0F904460D48FEF7E2FF8D
:1025900008B1FEF7B3FB0A4B0A4918782246FFF749
:1025A00007F808B1FEF7AAFB04B010BD000003064F
:1025B000F02C0000D52400000080004000A861003D
:1025C000D40600204081004008B5054B1878FFF77D
:1025D0000FF818B1BDE80840FEF790BB08BD00BF7A
:1025E000D40600201FB5134A10685168127A01AB57
:1025F00003C3114911481A70FFF7F4F808B1FEF748
:102600007DFB01A90020FFF735F908B1FEF776FB45
:102610000B480521FFF796F908B1FEF76FFB094853
:102620000521FFF78FF908B1FEF768FB05B05DF8EB
:1026300004FB00BFE22C0000D9240000EB2C0000BA
:10264000C0060020CA060020002108B50846FEF793
:1026500057F808B1FEF752FBFDF796FFFEF7BAFEFA
:1026600008B1FEF74BFBFFF7BDFFFFF769FFFFF770
:10267000ABFF0848084B0949C01AC008000440F0E5
:102680000300FEF7D3F9FEF7BBFEFEF789F800283A
:10269000FBD1F8E7F42A0000C42A0000C02C000097
:1026A0004FF08053D3F83001421C04BF4FF0704309
:1026B00093F8E00F831F5842584170474FF0704322
:1026C00093F8E02F062A09D1D3F8E83FC3F30313A8
:1026D000033B032B02D8024AD05C704700207047AE
:1026E000002D000008B5FFF7DBFF40B14FF080532D
:1026F0008F4AD3F82433C3F30423C2F84035FFF7DD
:10270000DDFF10B18B4B8C4A5A67FFF7C9FF48B108
:102710004FF080534FF08042D3F84432C3F342333A
:10272000C2F83C35FFF7CAFF30B1844AD2F8FC301A
:1027300023F08073C2F8FC30FFF7B2FF40B14FF0D6
:1027400080430022C3F80C21C3F81021C3F83825B8
:10275000FFF7B4FF20B14FF080430322C3F8A02558
:10276000FFF7ACFF60B1764B0522C3F810260122BB
:10277000C3F888260022C3F818263F22C3F814267F
:102780004FF08053D3F83021511C09BF4FF07043F4
:10279000D3F8343193F8E02FD3F8E83F08BFC3F300
:1027A0000313062A4DD1033B032B03D8654AD35CA0
:1027B000002B46D04FF08052634BD2F80414C3F87C
:1027C0002015D2F80814C3F82415D2F80C14C3F855
:1027D0002815D2F81014C3F82C15D2F81414C3F825
:1027E0003015D2F81814C3F83415D2F81C14C3F8F5
:1027F0004015D2F82014C3F84415D2F82414C3F8B5
:102800004815D2F82814C3F84C15D2F82C14C3F884
:102810005015D2F83014C3F85415D2F83414C3F854
:102820006015D2F83814C3F86415D2F83C14C3F814
:102830006815D2F84014C3F86C15D2F84424C3F8D4
:102840007025FFF72DFF48B14FF080534FF08042C5
:10285000D3F8583203F04F03C2F8E43EFFF720FFED
:1028600048B14FF08043D3F80024D20744BF6FF043
:102870000102C3F800244FF08053D3F83021062A18
:102880000ED1D3F83431033B032B02D82F4AD35C4B
:1028900033B12F4AD2F83C3743F48063C2F83C3757
:1028A000264AD2F8883043F47003C2F88830BFF368
:1028B0004F8FBFF36F8F4FF01023D3F80022002A01
:1028C00003DBD3F80432002B2EDA224B0122C3F8AB
:1028D0000425D3F80024002AFBD04FF01022152144
:1028E000C2F80012D3F80024002AFBD04FF01023C6
:1028F0001522C3F80422174BD3F80024002AFBD07A
:102900000022C3F80425D3F80024002AFBD0BFF32B
:102910004F8F0A49104BCA6802F4E0621343CB6040
:10292000BFF34F8F00BFFDE70C4B0D4A1A6008BD87
:102930000030014000C007400DF0ADBA00ED00E0EE
:1029400000500040F82C000000C00040FC2C0000AB
:102950000010004000E001400400FA051C000020C7
:102960000090D0037F2805D8034A044B105C5B5CC1
:102970001840704700207047102D0000902D000077
:10298000A0F16103192B98BF20387047A0F14103D3
:10299000192B98BF203070477F299ABF0170012002
:1029A0006FF02E00704700BF5AB10A787F2A0AD80C
:1029B00000B102600021501AC3E9001118BF0120C4
:1029C0007047104670476FF02E007047A0F161030A
:1029D000192B98BF20387047A0F14103192B98BFDD
:1029E000203070477F2805D8034A044B105C5B5C9D
:1029F0001840704700207047102D0000902D0000F7
:102A0000024B5B689B6809211B6818472000002067
:102A1000844640EA010313F0030F18D18446202AAC
:102A20000BD32DE9F007B1E8F807A0E8F807A2F109
:102A30002002202AF7D2BDE8F007042A07D351F874
:102A4000043B40F8043BA2F10402042AF7D2002A16
:102A500005D011F8013B00F8013B013AF9D160467D
:102A6000704700F1010110F0030F11D010F8012B95
:102A7000002A23D010F0030F0AD010F8012B002AEF
:102A80001CD010F0030F03D010F8012B002A15D032
:102A90002DE970004FF001324FF0803350F8044BB5
:102AA000A4EB020525EA04051D4000D1F6E7A0F1DC
:102AB000040070BC10F8012B002AFBD1A0EB010030
:022AC00070475D
:102AC4008C2C000000000000902C0000000000008E
:102AD400942C0000000000009A2C0000000000006C
:102AE400A02C000000000000A52C00000000000045
:102AF400762B000000000303752C0000000000008A
:102B0400482B000000000000542B0000140000209B
:102B140078000020400100204801002080000020AF
:042B24001800000095
:102B2800FFFFFFFFFFFFFFFFFFFFFFFFFFFFFFFFAD
:102B380000000000000000000000D60106010000AF
:102B4800F104000055050000A104000075617274CD
:102B58005F6C6F675F6261636B656E64004261639F
:102B68006B656E647320666C75736865640061706C
:102B780070000000680500207F000000E8050020C4
:102B88001B5B313B33316D0025734C6F67732064D9
:102B9800726F70706564202825642925730D0A00FA
:102BA8001B5B306D002573003C25733E2025733A6E
:102BB8002000202530327800202020007C0025636A
:102BC800001B5B313B33306D001B5B313B33326D97
:102BD800001B5B313B33336D001B5B313B33346D82
:102BE800001B5B313B33356D001B5B313B33366D6E
:102BF800001B5B313B33376D007761726E696E671E
:102C080000696E666F00646562756700A82B000036
:102C1800C92B0000882B0000D12B0000D92B000005
:102C2800E12B0000E92B0000F12B0000F92B00003C
:102C380000000000522C0000012C0000092C0000AC
:102C48000E2C0000466174616C206572726F720010
:102C580053797374656D2072657365740030313211
:102C680033343536373839414243444546707772F4
:102C78005F6D676D74000000C42A0000C42A00005C
:102C88000400000050504900505253005341414441
:102C9800430054494D455200554152540055415244
:102CA800544500414443206576656E74206E756D09
:102CB8006265723A202564005341414443204841EB
:102CC8004C2073696D706C65206578616D706C65FA
:102CD80020737461727465642E00000000000200A5
:102CE8000001000100060000008000400004000010
:102CF8000000010100000001010000004300000085
:102D0800504F534958000000202020202020202028
:102D18002068282828282020202020202020202043
:102D280020202020202020204810101010101010E3
:102D380010101010101010108484848484848484EB
:102D480084841010101010101081818181818101FC
:102D5800010101010101010101010101010101015B
:102D680001010110101010101082828282828202EA
:102D7800020202020202020202020202020202022B
:102D8800020202101010102000070320041702018D
:102D98000857104080000000042D0000082E000095
:102DA8001C2F000053756E004D6F6E005475650042
:102DB8005765640054687500467269005361740071
:102DC800000000004A616E00466562004D617200B5
:102DD800417072004D6179004A756E004A756C0049
:102DE80041756700536570004F6374004E6F76003D
:102DF8004465630000000000414D00504D00000094
:102E0800402F00003C2F00003C2F00003C2F00000A
:102E18003C2F00003C2F00003C2F00003C2F0000FE
:102E28003C2F00003C2F0000FFFFFFFFFFFFFFFFCC
:102E3800FFFFFFFFFFFF00007C2E0000AC2D00000D
:102E4800B82E0000CC2D0000002E0000602E0000DF
:102E5800102F00006C2E0000256D2F25642F25797A
:102E680000000000256120256220256520255420CA
:102E78002559000053756E646179004D6F6E646169
:102E8800790054756573646179005765646E65737C
:102E98006461790054687572736461790046726977
:102EA800646179005361747572646179000000008F
:102EB8004A616E75617279004665627275617279F0
:102EC800004D6172636800417072696C004D6179F0
:102ED800004A756E65004A756C79004175677573AF
:102EE800740053657074656D626572004F63746F2A
:102EF800626572004E6F76656D6265720044656347
:102F0800656D62657200000025483A254D3A2553E3
:102F18000000000065290000812900008D290000BB
:102F2800E5290000CD290000D929000099290000D1
:0A2F3800A9290000000000002E008F
:102F440000000000002000400000000000200040BD
:102F54000000000000000000FF0000000090D0030B
:102F6400A02D0000A02D0000A02D0000A02D000029
:042F7400A02D00008C
:040000030000037581
:00000001FF
