:020000022000DC
:1060000000000120756302005D6302005F6302000F
:106010006163020063630200656302000000000028
:1060200000000000000000000000000067630200A4
:1060300069630200000000006B6302006D630200F0
:10604000659302006F630200699702006F630200AC
:106050006F6302006F6302001D9602006F6302000F
:106060006F6302006F6302006F6302006F630200E0
:106070006F630200359802006F6302006F630200D5
:106080006F630200697302006F6302006F630200B6
:106090006F6302006F630200411003006F63020030
:1060A0006F6302006F6302006F6302006F630200A0
:1060B0006F6302006F630200000000000000000038
:1060C0006F6302006F6302006F6302006F63020080
:1060D0006F6302006F6302006F6302000000000044
:1060E00000000000000000000000000000000000B0
:1060F00000000000000000000000000000000000A0
:10610000000000000000000000000000000000008F
:10611000000000000000000000000000000000007F
:10612000000000000000000000000000000000006F
:10613000000000000000000000000000000000005F
:10614000000000000000000000000000000000004F
:10615000000000000000000000000000000000003F
:10616000000000000000000000000000000000002F
:10617000000000000000000000000000000000001F
:10618000000000000000000000000000000000000F
:1061900000000000000000000000000000000000FF
:1061A00000000000000000000000000000000000EF
:1061B00000000000000000000000000000000000DF
:1061C00000000000000000000000000000000000CF
:1061D00000000000000000000000000000000000BF
:1061E00000000000000000000000000000000000AF
:1061F000000000000000000000000000000000009F
:10620000354936480A1A02D0072291438D4634494F
:1062100034480A1A06D00722914381F309880222E2
:1062200082F3148830483149314A00F044F831484B
:106230003149324A00F03FF831483249324A00F0E1
:106240003AF832483249334A00F035F83248334997
:10625000334A00F030F833483349344A00F02BF821
:1062600033483449344A00F026F83448344900228F
:1062700000F02CF833483449002200F027F8334866
:106280003349091A082902DB002202604160314AC1
:1062900090471F481F49884205D00268043003B464
:1062A000904703BCF7E700208646EC46002000211B
:1062B000294A9047FEE7884207D0521A05D0037852
:1062C00001300B700131013AF9D17047884202D098
:1062D00002700130FAE770470000012000E0002062
:1062E000000001200000012010930300E42B002097
:1062F0001E2C0020D0630200D0630200983F0300F0
:1063000010930300E42B0020E42B00205C410300E9
:106310005C4103005C4103005C4103005C410300FD
:106320005C4103005C4103005C41030010930300E7
:106330004C930300202C0020202C0020202C002037
:106340004A4300204C4300204C4300204C43002093
:106350004C6300209D630200C5B50200FEE7FEE726
:10636000FEE7FEE7FEE7FEE7FEE7FEE7FEE7FEE705
:1063700000F002B8FFF7FCBF0F484FF00701884359
:1063800085460E4880470E48016841F4700101605F
:10639000BFF34F8FBFF36F8FFFF732BF09480A4932
:1063A0000A4A884207D0521A05D0037801300B7090
:1063B0000131013AF9D1704700000120BDB9020056
:1063C00088ED00E048410300D02B0020E42B0020A2
:1063D000022003F087BA00002DE9F04780460D4601
:1063E00003F0A0FA0328044610D8012D10D0022D86
:1063F00030D05DB91A4800F070FD1A4B04EB44022E
:1064000013449D78184B1B5DAB4219D0BDE8F08753
:10641000144E00EB4003F218F55C5378470053B17B
:10642000DFF84C900E484A464FF4804100F03DFDA5
:1064300008B989F8008027443E440B4BB2781A55BE
:10644000002DE3D0094B1B68002BDFD02846BDE8A8
:10645000F047184700EB4004024804446578EFE732
:10646000482C0020882C0020A12C00209C2C0020EF
:10647000202C002000780221FFF7AEBF08B5094BA1
:106480001B7853B1002003F003FA012003F000FA57
:10649000BDE80840032003F0FBB9BDE8084003F065
:1064A00003BA00BF212C0020F8B57A4C23780546AA
:1064B0001BB100232370FFF7E1FF172D00F2878047
:1064C000DFE805F00C1717425364757F878C878CC3
:1064D000949999999999C3C8D0D8E3E3FFF7CEFF6F
:1064E0006D4800F0FAFC6D4B002204461A702046FD
:1064F000F8BD002003F0B2F9F0B1002003F0C8F9B4
:10650000022D0CBF4FF4E1644FF47A64634B1D70AD
:1065100000254FF400464FF47A7029464FF4FA6292
:106520000023E4FB06010AF076FF2A460146BDE897
:10653000F840594800F0B9BC03F09EF9022D0CBF99
:10654000C8244FF4C874E1E7002003F087F940B194
:10655000002003F09DF94FF44874504B03221A7049
:10656000D6E703F089F9C824F7E7002003F076F9AD
:1065700038B1002003F08CF94FF47A64474B0422C1
:10658000EDE703F079F94FF4C874F7E7002003F062
:1065900065F948B1002003F07BF9404B05221A70E1
:1065A00040F6CD410022C2E703F066F9F5E700208E
:1065B00003F098F9394B06221A70002240F2666106
:1065C000B5E7002003F058F9344B07221A70002475
:1065D0008DE70120207003F085F9EEE7012020709F
:1065E00003F080F900224FF40051A0E703F06BF9AB
:1065F0002A4B0C22EAE72A482A4E00F06EFCD5F11D
:10660000110504461CD0D8B9012D13D0C82045432C
:1066100021464FF400474FF47A704FF4FA6200239A
:10662000C5FB07010AF0F7FE224601461C4800F0B0
:106630003CFC0446022003F01FF90123337056E7A7
:10664000022003F025F90023F8E7FFF717FF134BAB
:106650001222BBE7FFF712FF002003F00DF90F4BEA
:106660001322B3E7FFF70AFF012003F005F90B4BF4
:106670001422ABE7FFF702FF002003F0FDF8012032
:1066800003F0FAF8054B1522A0E703F01CF9034BC1
:106690001D709CE7982C0020682C0020A02C002066
:1066A000282C0020212C0020044B1B68DB0703D57D
:1066B000034B1878FFF7F8BE704700BF942C0020FA
:1066C000A02C002010B5002914BF0324002403F0DF
:1066D0003BF9800000F1A040D0F8002722F44032BE
:1066E000C0F80027D0F8003743EA0443C0F8003769
:1066F000002010BD032801D803F006B90020704720
:10670000044B1B6813F0010301D0FFF7CDBE184600
:10671000704700BF942C002038B51C4B18601C4BF0
:1067200010F00204054619601AD01A4B1A480E22BE
:106730001A700F22DA7010229A7111225A720421F3
:1067400040F2333200F048FA044648B900F09CFAAF
:10675000044628B90146114A114800F09BFB044643
:10676000EB0711D5012003F0F5F86CB921460D4A6D
:106770000D4800F08FFB044630B9BDE838400B4AA5
:106780000B48012100F086BB204638BD942C002028
:106790009C2C0020882C00205C41030075640200C2
:1067A00080410300A966020084410300D163020016
:1067B0007C410300032811D8012A0AD101290FD1F5
:1067C00000F10E02D2B20D4B00EB40001A54002033
:1067D00070470129F7D0022904D049B1072070473A
:1067E0000022F8E7054B00EB400018444270EEE74A
:1067F000024B00EB400018448270E8E7882C002030
:10680000032802D80121FFF75DBF0620704708B5B5
:10681000012202210020FFF7CDFF08B1072810D187
:10682000072202210120FFF7C5FF08B1072808D180
:1068300000210A220846FFF7BDFF10B1072808BF54
:10684000002008BD0388102B10B502D0112B1ED0DC
:1068500010BD1A4C2168B1B901220846FFF7AAFF02
:1068600008B1072824D1072202210120FFF7A2FF47
:1068700008B107281CD1042202210020FFF79AFF4B
:1068800008B1072814D1236801332360E0E70B4ADD
:106890001368013B1360002BDAD1FFF7B8FF002823
:1068A000D6D0074B1B68002BD2D0BDE8104018474C
:1068B000034B1B68002BE6D09847E4E7AC2C002084
:1068C000A82C002008B50020FFF79AFF08B1062881
:1068D00006D10120FFF794FF10B1062808BF002061
:1068E00008BD00000D4B10B518600C4629B1012001
:1068F000FFF700FF40B102232370094B1B6853B917
:10690000BDE81040FFF783BFFFF7F4FE08B10B238B
:10691000F2E72070F1E7002010BD00BFA82C002096
:10692000AC2C002004F0A6BB0021084604F056BBA6
:1069300010F1360F0AD060B148F2165348F21152E6
:1069400010F1380F08BF13461846704748F2145329
:10695000FAE70346F8E708B50846114602F0B4FC2A
:10696000002008BD30B5044685B0002002F02EFCA2
:10697000054678B9201D039004F071F80649039884
:1069800000952B462A4604F0BFF805B0BDE830401C
:10699000FFF7CEBF05B030BD5769020008B504301F
:1069A00004F062F802F03EFC002008BD08B5043097
:1069B00004F041F9BDE80840FFF7BABF08B5114639
:1069C00004301A4604F05EF8BDE80840FFF7B0BF97
:1069D000C30710B507D4F023054A4008145C2340D0
:1069E0001943115410BD0901C9B20F23F4E700BFC8
:1069F000E02C002030B5094B1C78094B19680023A6
:106A00009C4202DC0022104630BD11F83350854212
:106A100001EBC302F7D00133F2E700BFB02C002036
:106A2000F02C002013B504460191FFF7E3FF38B1C5
:106A300043682BB10199204602B0BDE810401847C9
:106A400002B010BD034B044819680022490800F049
:106A50002CBA00BFB42C0020B82C002010B5C0B256
:106A6000FFF7C8FF0446007802F0CEFD63785A1E97
:106A700053425341834208D1044BD3E900231343CB
:106A800003D1BDE81040FFF7DDBF10BDD82C0020BA
:106A900037B54308374AD35CC2074CBF1B0903F024
:106AA0000F0304460D46042B25D8DFE803F0032628
:106AB0002F3C4000F9B10121FFF78AFF00230DF1BF
:106AC00007008DF8073000F0E1FA0120A4F120035F
:106AD000C4F12001284A20FA01F100FA03F30B4324
:106AE000A040D2E9004120430B43C2E900039DF8D6
:106AF000070000F0EFFA03B030BD002918BF0221F3
:106B0000204603B0BDE83040FFF762BF49B1032122
:106B1000FFF75EFF0121204603B0BDE83040FFF7DC
:106B200081BF0121ECE70029E5D10421E8E709B1A3
:106B30000321E5E7FFF74CFF29462046FFF772FFE8
:106B40000DF107008DF8075000F0A0FA0120A4F124
:106B50002003C4F12001084A20FA01F100FA03F3EE
:106B60000B43A040D2E9004124EA000021EA0303DC
:106B7000BBE700BFE02C0020D82C00202DE9F0411D
:106B8000124E134F00243378A34208DC114BD3E993
:106B90000023134318D0BDE8F041FFF753BF3D6811
:106BA00005EBC40815F8340002F02EFD98F801300A
:106BB0005A1E53425341181A4142414115F83400BC
:106BC000FFF766FF0134DEE7BDE8F081B02C00205E
:106BD000F02C0020D82C0020092AF7B505460C46D9
:106BE00016463ED902F048FCE8B11F4B1F481D6015
:106BF0001F4B204F1C70204B002110221E600AF0FA
:106C0000EEFC1E4B00200021C3E90001013CE4B270
:106C10000326FF2C0DD11A4A1A48002103B0BDE803
:106C2000F04000F037B902F0EFFB0028DDD003B0F0
:106C3000F0BD9DF8063015F834008DF8046005EBC2
:106C4000C40223F007038DF8063001A993788DF86C
:106C500005303A4602F01AFC013CE4B20028D8D0D4
:106C6000E5E70720E3E700BFF02C0020E02C002040
:106C7000B02C00205D6A0200B42C0020D82C00202B
:106C80007D6B02009441030070B5084D084E00244E
:106C90002B789C4201D3002070BD3368012113F88A
:106CA000340002F06BFC0134F2E700BFB02C00208E
:106CB000F02C00201FB50021039001AA44F201002E
:106CC000CDE9011100F004F805B05DF804FB000007
:106CD00038B572B603F0B8F802F02AFF0028FBD1ED
:106CE000104B114C114D1249E41AE408240444F0ED
:106CF000010003F067F8D5F8F030DB0700D500BEDF
:106D00000C4944F0020003F05DF8BFF34F8FEA68CE
:106D1000094B02F4E0621343EB60BFF34F8F00BFF7
:106D2000FDE700BF584003008040030000ED00E095
:106D300098410300A44103000400FA0510B5D0E90E
:106D40000243D1E90202A04272EB03032CBF0120EF
:106D5000002010BD08B50A4800F0EFFA094AD2E950
:106D60000031C018084BD3E9002341F100019042E3
:106D700071EB030303D210F1807041F1000108BDF3
:106D8000E42B0020F82C0020702D002037B505469C
:106D90000C460A4801A901F08EFA60B10570446002
:106DA00001A9064801F0B1FA18B1054800F0CAFA85
:106DB000002003B030BD0420FBE700BF5C2D0020A5
:106DC000E42B002038B5184B1B78044613B9002576
:106DD000284638BD0028FAD0037F03F0FF05002BBA
:106DE000F5D0FFF7B7FFD4E90223904271EB03031C
:106DF00014D3236903B92377D4E90530984721696F
:106E00000029E4D0237F03F0FF05002BDFD0D4E975
:106E100002325B1842F10002C4E902320348214603
:106E200002F064F8D4E700BF002D0020C041030049
:106E300013B5114B114918680190082310485822C6
:106E400001F004FA044698B90E4A0F4801A900F06F
:106E500065F9044660B90C48012100F051FA01239C
:106E60000A4A0948194600F0B3F9094B01221A7081
:106E7000204602B010BD00BFBC410300042D00201D
:106E80005C2D0020FD6E0200E42B0020FFFF7F0040
:106E9000002D00203AB103685A614A1E5142514107
:106EA0001961002070470720704738B5037F0446FA
:106EB0000D4683B98261FFF74DFF2369281841F120
:106EC0000001C4E9020103B1256121460020BDE8AB
:106ED0003840FFF75BBF002038BD00230146037731
:106EE0000120FFF753BF401A20F07F407047000099
:106EF000014800F022BA00BFE42B00202DE9F3473F
:106F0000064600F005FA40B1584AD2E9003113F1C3
:106F1000807341F10001C2E900310021304600F0E8
:106F200006FA38B1524C236823B12068FFF74AFFB4
:106F3000002323600121304600F0F9F920B1FFF76A
:106F400009FF4C4BC3E900014B48494D4B4C4C4F9A
:106F500001A901F0EAF9002842D1DFF82081444C70
:106F6000DFF82491404601F0D7FF2368002872D053
:106F70007BB12368D0E90252D3E902138D4272EB50
:106F800003032AD223681B7F1BB12168404601F00E
:106F9000ADFF404601F0BAFFD0E9027A0546FFF79F
:106FA000D9FE381A6AEB010A01287AF1000345DBA1
:106FB000B0F5350F40D3FFF79BFF324A02444FF440
:106FC00096030021484600F023F900283ED12368AB
:106FD00013B9304600F0F4F8256002B0BDE8F08740
:106FE0000378012B1DD0022B09D14FF00008204659
:106FF00001F08CFF002836D080F81C80F7E73BB901
:1070000041680B7F23B901230B77204601F06EFF07
:1070100001A9194801F0B4F901A9174801F085F94F
:1070200099E741682B68994202D100232B60EFE772
:10703000204601F074FFEBE7AA68C0E7002148464C
:1070400000F06BF92846FFF7BDFE01E00D28F9D0EE
:107050000023236086E7002BBFD1304602B0BDE895
:10706000F04700F0B1B801233B70D1E7F82C0020C5
:10707000782D0020702D00205C2D0020C0410300E1
:10708000002D0020FFFFB400E42B002070B5EFF3CB
:10709000108672B60C4A946801239CB993600B4B1E
:1070A0000B4DD3F8801029401160C3F88050D3F8FD
:1070B000841051604FF0FF32C3F88420047006B989
:1070C00062B670BD0370FAE77C2D002000E100E09D
:1070D000FC06FFBD084B9A6810B55AB150B9EFF3E2
:1070E000108172B6054A1C6814605C685460986030
:1070F00001B962B610BD00BF7C2D002000E100E0A8
:10710000435882B03BB10023435043580193019B45
:10711000012002B070471846FBE70000F8B5204B8D
:107120004479204E43F824201F4A204B06EBC40428
:107130009B1A2279DB081B0432B143F002001C4980
:1071400002F040FE0820F8BD02680C88C2F808452D
:1071500090F904508A7804795201002DD2B219DBDB
:1071600014494F1987F8002301226D0904F01F0408
:1071700002FA04F441F82540427906EBC2010124E9
:1071800046F832000C7143F003000B4902F01AFE7E
:107190000020D8E7094904F00F040A55ECE700BFC6
:1071A000902D0020882D00205840030090400300BF
:1071B000CC41030000E100E0EE41030014ED00E0EB
:1071C000036801221A607047036801225A60704701
:1071D00073B501F15005AD000068ADB24FF48034D5
:1071E0008C400026C0F80843C0F84843465101F5DA
:1071F000A8714559019522F07F42019D40F8212058
:10720000C0F844430BB1C0F8044302B070BD0000A5
:107210002DE9F74F0D4622F07F4402684FF4803786
:1072200005F150068F408046B60002EB8500C2F89B
:107230004873B6B2C2F80873D2F8041599464FF0F5
:10724000000BD0F84035C0F8401542F806B05B1A84
:107250009259009223F07F43012B009A4FEA850A4E
:107260000CD1264B4FF4806043F001039847D8F8C7
:10727000003043F806B09B590193019BD8F80010E9
:10728000D1F80465C1F84473A31B23F07F43012B9D
:107290001CD11A4B05F5A875013443F0010341F8E0
:1072A00025404FF480609847D8F80030D3F8043573
:1072B0009E4209D1D8F800300020C3F84473C3F8C7
:1072C000047303B0BDE8F08F0D20FAE78A44C9F1DA
:1072D000FF13CAF84045D1F80405221A013A22F0FA
:1072E0007F4203F57F439342EED3002AE2D101347B
:1072F000CAF84045D1F804359842DAE70042030065
:1073000003680222C3F8442309B1C3F80423704779
:1073100000684FF48271FFF7F3BE4FF4803303FA35
:1073200001F10368C3F84813C3F8081370475031DC
:107330008900006889B2FFF7E3BE0368D3F804054B
:107340007047000090F90430002B09DB5A09012135
:1073500003F01F0301FA03F34032024941F82230DF
:10736000704700BF00E100E0024B034A1B68106851
:10737000184700BF902D0020882D002070B5064DC5
:107380000646002455F8043B0BB1304698470134BB
:10739000042CF7D170BD00BFA02D0020438803331B
:1073A00000EB830399420BD382884FF6FF739A4216
:1073B00008D0038833B18068431C58425841704755
:1073C0000220704701207047033080B240F2FE3344
:1073D000984230B51FD8134B1A783AB91C895D8989
:1073E0002C440444A4B2B4F5806F0AD91A7DAAB91A
:1073F0009A8BDC8B2244024492B2B2F5806F0DD896
:1074000001220A801446142202FB04335A891044D4
:107410005881002030BD48F20860FBE748F2066062
:10742000F8E700BFD42D00200B4A0C4953881420E4
:1074300000FB0311CB6833B90420496810700122A6
:10744000074801F08DB907490523137002238B808B
:10745000012209680023F3E7B82D0020D42D002075
:10746000D02B00209C2E002007B500230549009357
:10747000054A09680548082301F0D8F803B05DF80B
:1074800004FB00BF9C2E002014420300D02B0020E0
:1074900007B5002301460093034A0448082301F07E
:1074A000C5F803B05DF804FB0C420300D02B0020AC
:1074B00013B500230C4600930146084A08480423EC
:1074C00001F0B4F838B9074B142101FB0431012352
:1074D0000B7402B010BD48F20D60FAE708420300D9
:1074E000D02B0020D42D002037B50A480A4B426823
:1074F0009C88196853880325033305709BB20020CC
:1075000000909B0001EB8401044801F08FF803B068
:1075100030BD00BFB82D00209C2E0020D02B0020B5
:1075200010B50146044800F0C6FE1C2204460021A6
:107530000AF055F8204610BD882E002068B1026878
:10754000084B9A4209D14068074B984207D0013353
:10755000984214BF03200120704703207047002089
:10756000704700BFDEC0ADDEFE011EF12DE9F04127
:107570000D460223154F2B80164600F5805100F171
:1075800008044FF001088C420ED2236801330BD05F
:107590002046FFF703FF48B10EB186F800800228AD
:1075A00009D14FF480632B80BDE8F081A3683A686D
:1075B000934200D93B602B886288033313442B80AD
:1075C0006388033304EB8304DDE700BFCC2D002088
:1075D00038B5144B14220D4602FB00302B6844686A
:1075E00004F58051A3B15C88033403EB84048C421E
:1075F00015D22368013312D02046FFF7CFFE0128B1
:1076000008D002280BD00028F1D12C60012038BD11
:107610000834ECE76388033304EB8304E7E70020D6
:10762000F5E700BFD42D0020426873B504460D462F
:107630006AB3234BD9688A4229D31B699A4226D858
:1076400012F0030323D11F490089098988421ED102
:107650002068916888421AD11B4841688A4203D940
:1076600001F580518A420DD381698A420CD901F516
:1076700080518A4208D201222A80B3FA83F040095D
:1076800002B070BD1A46F7E748F20963F5E7002635
:107690002E800196288801A9FFF79AFF30B92B8820
:1076A00001339BB2012B2B80F3D9E9E7019B2268C0
:1076B00099689142EED16360024B1B892381DFE719
:1076C000D02B0020B82D0020D42D00202DE9F84328
:1076D0001C461D4B1B7806460F46154673B382B3F6
:1076E0007CB3DFF86C804FF01409A388012B02D91A
:1076F00048F2096020E009FB03F318F803302BB9C6
:10770000A0882146FFF764FF20B92060A3880133D9
:10771000A380EAE723681EB1998832889142EFD1AD
:107720001FB119883A889142EAD19A68C5E90023C5
:10773000064B1B892B810020BDE8F88348F20160CD
:10774000FAE748F20460F7E7B02D0020B82D0020DA
:10775000D42D002008B5074B5888191DFFF738FFB6
:1077600018B1BDE80840FFF7BFBEBDE80840FFF70D
:107770005BBE00BFB82D00202DE9F047A24FDFF817
:10778000AC8288B006463B6823B9A048414600F069
:10779000CCFD38603D6829784B1E052B07D8DFE803
:1077A00013F020007A007A000C010C01630148F20A
:1077B0000E641422002103A809F011FF41F61D53A5
:1077C0009C4208BF00243B6804941A78023A042AB9
:1077D00000F20282DFE812F0E301EF011102190268
:1077E00020022EB18A4B00225A604FF40644E0E793
:1077F0002B79032B1CD8DFE803F014022A35854AC5
:107800001378022B1AD0137D022B4FF0010317D1EE
:1078100014214B43D1180020D0544868FFF738FE9C
:1078200003E001232B71FFF71FFE002800F0BF804B
:10783000774B00225A6048F20D64BAE70023E7E76D
:10784000734A13700023536041F61D54B1E7724927
:107850007248002302222B718A800968012200F0FD
:107860007FFFE2E76C4C00262E712068FFF710FEC8
:107870006B4BDFF8A0C15B882568142253430CEBE7
:1078800003020CF8036051685560A5881581022237
:107890002160A280C9E7B5F814A0AA7DDFF8749131
:1078A000AEB1022AEB8806D9142101FB0A91DA1C39
:1078B000088902440A81142202FB0A99C3F57F4316
:1078C000B9F80A20FD331344A9F80A308DE71423D0
:1078D00003FB0A9318895C6804EB8004062A69D8C4
:1078E000DFE802F0274E36441D5A040041F61D54CD
:1078F000AA7DEB88022A06D9142101FB0A91DA1C21
:10790000088902440A81142202FB0A99C3F57F43C5
:10791000B9F80A20FD331344A9F80A3049E7414871
:10792000414900234360AB690360FFF77DFE0028F7
:107930005BD00223AB75002300930423EA18214691
:10794000364800F073FE002831D048F20D64CFE7CE
:107950002B69002B14BF03230123AB750023009375
:1079600005F10C02042304F10801E9E70123AB75DA
:107970000022EB8800922A699B0004F10C01DFE7EA
:1079800003290CBF05230623AB75002300930423B2
:1079900005F10802E118D3E70623AB75224B1988DD
:1079A000204B5868FFF784FD04460028A0D108B09A
:1079B000BDE8F08748F20E649AE7002E7FF415AF19
:1079C0002B79012B34D0022B3FF43EAF002B7FF4F8
:1079D000EEAE02232B710DF10A01EB68039303A8AD
:1079E000CDE90466FFF720FE10B948F20964E0E62D
:1079F0000498BDF80A108388EB8003882B81FFF779
:107A000057FD044629E000BFD02D0020882E00201D
:107A1000B02D0020D42D00209C2E0020D02B002043
:107A2000B82D0020942D0020A82E0020C82D002065
:107A3000DFF8009203AA4B463146A81DFFF746FE29
:107A4000044670B9B9F804100498FFF731FD0446F4
:107A500048F209639C423FF4F7AE002C7FF4A9AED4
:107A6000A5E7C9E90066F3E7002E7FF4BEAE6C4BD4
:107A70001A7BBAB11E731A78013A062A3FF697AEFE
:107A800001A151F822F000BF337B0200597B0200B4
:107A9000777B02007D7B0200AF770200837B0200D0
:107AA000957B02001A78072AE5D801A151F822F047
:107AB000D17A0200777A0200777A0200F77A020020
:107AC0000B7B02002F7B02002F7B0200F37A020067
:107AD0001A89544901321A8100225A801A730A788D
:107AE000B2FA82F252099A720A7DB2FA82F252090D
:107AF000DA72012207E04C4958688A8840880332CC
:107B000002448A8002221A70B5E75C88454A4649D9
:107B1000142505FB04220868546850608888108189
:107B200002200C608880002111740622EBE70722F6
:107B3000E9E79A7A32B9DA7A8AB900221A705A8059
:107B40005A6081E6374900229A72CA68002AF2D147
:107B5000097C0029EFD05A80FFF7FCFD51E7002295
:107B6000DA72304A116A0029E7D192F82420002AFB
:107B7000E3D00122EFE7FFF7B7FC42E7FFF754FC41
:107B80003FE75A88274B142101FB02335868FFF75F
:107B90007FFC36E700225A60FFF766FC31E70122DE
:107BA0008DF80C201A89ADF818209A88DB68ADF89A
:107BB0001A20059310E002228DF80C201A89ADF8E6
:107BC00018209A88ADF81A20DA689B7D05929A1FD2
:107BD000534253418DF81C3003A8FFF7CFFB00261A
:107BE000414612483E6000F0CBFB1148012100F0F5
:107BF00081FC00287FF4C7ADD9E603228DF80C2064
:107C0000DA88ADF818201A89D0E704228DF80C2004
:107C1000DB88ADF81830DFE705238DF80C30DBE7A3
:107C2000B82D0020D42D00209C2E0020882E00206E
:107C3000982E0020AC2E00204068FFF79DBD00006C
:107C400008B50548012100F03DFC18B9BDE8084021
:107C5000FFF792BD08BD00BF982E00202DE9F3412B
:107C60009846374B1B7806460D46002B5CD0002902
:107C70005DD009884FF6FF7399425BD06B88002B6B
:107C800058D06B689B0758D14AB92F890DF1020172
:107C90003846FFF799FB30B102B0BDE8F081138898
:107CA0005788ADF8023001A8FFF73AFC044660B9E6
:107CB000BDF80220234B142101FB023358890338FD
:107CC000C01B588148F20760E6E780F80080002377
:107CD0008375BDF8023083826B68036101211A4805
:107CE00000F0FCFB2B882381B8F1030F6B88A38085
:107CF00004BF0423A3754FF0000508BF3368E0609C
:107D000008BFA3611148E780658101A900F0FDFA71
:107D100036B1E36833600E4B75601B89B5723381F1
:107D2000FFF78EFF0020B7E748F20160B4E748F2A2
:107D30000460B1E748F20360AEE748F20260ABE7E7
:107D4000B02D0020D42D0020CC2D0020882E002026
:107D5000B82D002008B5034607480268042A08D059
:107D60000168064A42F82130012100F0B7FB0020EB
:107D700008BD48F20B60FBE7A42E0020A02D0020D8
:107D80002DE9F04F89B01422002103A809F027FC47
:107D90007A4B1B7803F0FF0B3BB103A8FFF7EEFA19
:107DA0000027384609B0BDE8F08F744B181D00F06D
:107DB000ADFB0028F4D1DBF8F83FDFF8E0A15C1C54
:107DC00008BF4FF010234FF0805208BF5B69116964
:107DD0005269581C08BF02FB01F3CAF81030684909
:107DE000A3F5405300225046CAF80C3000F0ECFBDB
:107DF00007460028D5D11C2362496348DFF8A091CB
:107E00008C2200F023FA0323B8463D4601933C46FA
:107E1000DAF80C6046443046FFF790FB012862D048
:107E2000032817D000283DD158494FF0140C0CFB03
:107E300004FC01EB0C0201F80C0056600CF110027E
:107E40000CF1080C0A4430466144FFF78FFB45F003
:107E5000020545E03268531C02D04D4B9A4234D1A2
:107E6000321D06F58051106801302ED10432914246
:107E7000F9D1D9F800203AB90222C9F80060A9F86E
:107E800004204FF0010B0BE0142262433F4B022011
:107E9000991898543F4A4E60548001340881A4B226
:107EA00045F0010508F58058B8F5405FB0D1019B59
:107EB000012B98BF0025EDB2022D03D0062D32D044
:107EC000002D39D148F20A676BE7019B2F495A1EF2
:107ED00093B21422624388180193466003208854A9
:107EE0000134A4B2DEE7BBF1000F0DD0274B142202
:107EF0006243991802209854D9F800204A60254A14
:107F0000088154800134A4B200222349C9F80060DA
:107F10003046FFF72BFBB9F80420022A0CBF0422DD
:107F200008221543BEE7154A0123137003A8002356
:107F30005360FFF723FA34E702A8FFF7F1FAC8B15C
:107F40000123013D03700A2D09D8DFE805F006087A
:107F50000608070807080F110F000023037102A984
:107F6000094800F0D2F9FFF76BFE1AE70323F5E7A3
:107F70000223F3E748F2076713E700BFB02D0020A4
:107F800000440300FC2D0020882E0020D42D00206A
:107F9000DEC0ADDEB82D0020A02E0020D02B0020AA
:107FA0009C2E002073B50D460446C8B1C1B10DF139
:107FB0000601FFF739FBB0B1BDF806300B48666823
:107FC000142202FB030001210C3000F087FA6368E1
:107FD0002E600C336B600123A372002002B070BDD1
:107FE00048F20460FAE748F20960F7E7D42D002070
:107FF00013B50446A8B10DF10601FFF715FB98B1C2
:10800000BDF806200B4B142101FB0233DA6872B174
:10801000A27A62B1DA680020013ADA60A07202B096
:1080200010BD48F20460FAE748F20960F7E748F249
:108030000560F4E7D42D002002230022FFF70EBED6
:1080400018B103230022FFF709BE48F2046070470D
:10805000114B1B7813B50446ABB14FF6FF73984232
:1080600014D001A8FFF75CFA98B10523037001232F
:108070000371C48001A9094800F047F9FFF7E0FD4A
:10808000002002B010BD48F20160FAE748F2036038
:10809000F7E748F20760F4E7B02D0020882E0020B3
:1080A0000F4B1B7807B5A3B101A8FFF739FA98B1B8
:1080B0000623037001A90B4800F027F90A4B1A7830
:1080C0000AB101221A73FFF7BBFD002003B05DF86F
:1080D00004FB48F20160F9E748F20760F6E700BFE9
:1080E000B02D0020882E0020B82D002007B5ADF857
:1080F0000600ADF804100DF1060001A9FFF7E6FA3D
:1081000003B05DF804FB07B51346ADF806000A4658
:1081100000200DF10601FFF7D9FA03B05DF804FB6A
:1081200007B51346ADF806000A460DF1060000211A
:10813000FFF7CCFA03B05DF804FB20B119B1036876
:108140000B600020704748F2046070472DE9F84F3B
:108150003C4B1B780446002B6DD000286ED0DFF816
:10816000E8901222002109F03AFA032323804FF00D
:10817000000A4F4614264FF00108D9F80410B9F848
:108180000AB0B9F808500846FFF7D8F9032808BF25
:108190002388628804BF03F1FF33238006FB0A7340
:1081A0005D44DB681344638023899B446389A4F89E
:1081B00008B0ADB22B446381C5F58065A389ADB22B
:1081C000AB4238BFA58101F1080501F58051A942F4
:1081D00029D92B68013326D02846FFF7DFF801287C
:1081E0000AD0022815D00028F1D1A3880133A3803A
:1081F0000AE04FF0010AC0E7E3880133E380E38936
:108200006A8803331344E3816B88033305EB8305EA
:10821000DDE7E38884F810804D1BE189013301EB31
:10822000A501E380E18109F11409BAF1000FE0D062
:108230000020BDE8F88F48F20160FAE748F20460D8
:10824000F7E700BFB02D0020D42D002010B561B19C
:10825000B2FBF3F403FB1424A4B244B9C0E9001444
:1082600084608281C381204610BD0E20FCE7092076
:10827000FAE782B050E8022FC188B2EB324F4FF0DC
:10828000000317BF92B241EA014142EA014104E012
:108290004268B2EB324F08BF012340E80212002AC5
:1082A000E8D18DF807309DF80730002B0CBF112066
:1082B000002002B0704737B550E8013F9DB2C48935
:1082C00025448489A54228BF2D1B0489A54202BFED
:1082D000BFF32F8F002207E0C5EA030540E80154F1
:1082E000002CE9D14FF001028DF803200193019A8F
:1082F0000A609DF8031001F0FF0321B1006810FA35
:1083000082F003B030BD1846FBE70A884B889A42DA
:1083100009D150E8012FC2EA024240E80123002BB4
:10832000F7D1012070470020704737B550E8023F71
:108330001FFAA3F5C488A54202BFBFF32F8F002206
:108340000DE0C48925448489A54228BF2D1BC3EABA
:10835000054540E80254002CE8D14FF001028DF8A9
:1083600003200193019A0A609DF8031001F0FF03B6
:1083700021B1006800EB124003B030BD1846FBE7A6
:108380000A884B889A4209D150E8022FC2EA224259
:1083900040E80223002BF7D10120704700207047EE
:1083A00001F01F024B090121914000EB830000F016
:1083B00065B84B0910B501F01F040121A14000EB85
:1083C000830000F04FF8E04000F0010010BD01F024
:1083D0001F0301229A404B0900EB8300D14300F0B8
:1083E00065B84B0901F01F0150F82300C84000F0A8
:1083F000010070472DE9F0474F1E7F0980460E4669
:108400000137002558F8254008EB8509E44394FA24
:10841000A4F4B4FA84F44FEA451A202C06D10135AD
:10842000AF42EFD834462046BDE8F0875444A64218
:10843000F5D921464046FFF7BCFF0028F3D0D9F814
:108440000040E44394FAA4F4B4FA84F4E5E710B5E8
:10845000034653E8000F0A4643E8002494F0000F57
:10846000F7D110BD10B5034653E8000F40EA0102F2
:1084700043E8002494F0000FF6D110BD10B5034678
:1084800053E8002F42EA010043E8000494F0000F93
:10849000F6D110BD10B5034653E8000F00EA010203
:1084A00043E8002494F0000FF6D110BD10B5034648
:1084B00053E8002F02EA010043E8000494F0000FA3
:1084C000F6D110BD10B5034653E8000F00EB0102D2
:1084D00043E8002494F0000FF6D110BD10B5034618
:1084E00053E8002F02EB010043E8000494F0000F72
:1084F000F6D110BD10B5034653E8002FA2EB0100E2
:1085000043E8000494F0000FF6D110BD0121FFF7FD
:10851000A9BF0121FFF7B2BF0021FFF7BBBF10B514
:1085200090B1D0E9012301689B1ADBB20A60013BDC
:10853000DBB2FF2B026802D10020107110BD116860
:108540004C1C14600B70F2E70E20F7E737B50546B8
:1085500000240DF107008DF80740FEF797FD2A680B
:108560006B68116899420ED9481E106011F8013CE1
:10857000EC68298A01FB0344AB6811791B1ADBB252
:10858000994238BF13719DF80700FEF7A3FD2046FE
:1085900003B030BD37B5054600230DF107000C468A
:1085A0008DF80730FEF772FD2A681368591C1160B8
:1085B000E968641A298AB4FBF1F41C709DF807007D
:1085C000FEF788FD03B030BD13B50B46114680B9E8
:1085D000104B1148114AC01A0E23C0080093104BCB
:1085E0000004104940F0010001F003FC0E2002B02D
:1085F00010BD4BB9074B08480B4AC01AC0080E23E0
:1086000000930004064BECE703601B6802B0BDE872
:108610001040184758400300C040030025420300A3
:10862000E14303002A420300594203002DE9F743C6
:10863000DDF8288088B93E4B3E483F4AC01AC00842
:108640000E243E4B009400043D4940F0010001F02F
:10865000D0FB204603B0BDE8F0834AB9344B35481F
:10866000384AC01AC0080E24344B00940004EBE7CB
:10867000D0F800E0BEF1000F09D12D4B2D48324A51
:10868000C01AC00808242D4B00940004DCE74BB945
:10869000274B28482D4AC01AC0080924274B0094AC
:1086A0000004D1E74568D5F80490B3FBF9F509FB60
:1086B00015354DB11E4B1F48254AC01AC008092464
:1086C0001E4B00940004BFE78D0709D0184B1948D2
:1086D000204AC01AC0081024184B00940004B3E7C5
:1086E00012F0030F09D0124B12481B4AC01AC008DF
:1086F0001024124B00940004A6E7C568A9420DD3CC
:108700004D1EEC180569AC4208D8CDF82880DEF87B
:108710000C40A44603B0BDE8F0436047044B054855
:108720000E4AC01AC0081024044B009400048BE7C2
:1087300058400300C040030025420300CE4303001D
:108740002A420300A742030053420300664203008B
:10875000AD420300D7420300EF420300124303007F
:10876000F7B580B92A4B2B482B4AC01AC0080E24F3
:108770002A4B009400042A4940F0010001F039FB23
:10878000204603B0F0BDD0F800C0BCF1000F09D105
:108790001F4B2048234AC01AC00808241F4B0094CE
:1087A0000004E8E74AB91A4B1A481F4AC01AC00821
:1087B00009241A4B00940004DDE74568D5F800E071
:1087C0000EF1FF350D4209D0114B1248174AC01A5D
:1087D000C0081024114B00940004CCE7C568A942DE
:1087E0000CD34D1E0EFB02540569AC4206D8DCF8D2
:1087F0001040A44603B0BDE8F0406047044B054874
:108800000B4AC01AC0081024044B00940004B2E7BD
:1088100058400300C040030025420300BB4303004F
:108820002A42030053420300664203003943030017
:108830005F43030029DF704728DF704770B5036886
:108840009E6886B004460D466EB11422002168462B
:1088500008F0C5FEA3680593237901952BB1012B80
:108860000DD06846B04706B070BD01238DF80030CA
:1088700023690293E368039363690493F1E7022396
:108880008DF80030E3681B030293F5E70846704754
:1088900000207047024B187A003818BF012070473B
:1088A000502F0020034B187A0122B0FA80F05A743E
:1088B00040097047502F002008B510461A4608F0AE
:1088C00065FE002008BD000008B514220021044800
:1088D00008F085FE0348FFF7CCFC002008BD00BF70
:1088E000502F0020402F002010B5094C094B436049
:1088F0002046FFF70BFE40B908F088FB06492074BC
:108900001C2306488C22FFF7A1FC002010BD00BFED
:10891000502F0020F4430300B42E0020402F0020ED
:1089200038B5234D234C2B7A3BB923492348FFF715
:10893000FCFC206008B9686038BD022324682B72F3
:10894000237973B1012B24D020460321FFF776FF52
:1089500000232B726B6018491848BDE83840FFF7B8
:108960000FBDD4E90523D21AB2F5805FD4E9031014
:1089700028BF4FF480529208012A38BF01221944BF
:108980001844FFF757FF50B11128DDD101232B7296
:10899000D2E7D4E903031844FFF74EFFF3E72B7C3B
:1089A000002BC9D1BDE83840022000F009B800BF53
:1089B000502F0020682F0020642F0020402F00201F
:1089C00038B5234C237A002B41D0022B09D1032840
:1089D00030D0204B00221B68E2601A793AB1012A9C
:1089E00022D0637C7BBBBDE83840FFF799BFD3E959
:1089F00005128D1AB5F5805F94BF521902F58052A9
:108A00009A619142EDD102284FF0000308BF194648
:108A10002372104B18BF0D211868FFF70FFF0E4986
:108A20000E48FFF7ADFCDCE71A6901321A615B6999
:108A30009A42E7E7E3680133082B01D8E360D0E707
:108A40000023E360DFE7BDE8384008F0CFBA38BD67
:108A5000502F0020682F0020642F0020402F00207E
:108A6000831E012B01D8FFF7ABBF704700F0FD0359
:108A7000012B08D1044B00225A74421E504250412F
:108A80001874FFF74DBF7047502F002010B5064CEB
:108A9000201DFFF73BFD28B9637C1BB9BDE81040E2
:108AA000FFF73EBF10BD00BF502F00202DE9F3415E
:108AB00080460D46104801A916461F46FFF7FBFBEE
:108AC0000446B0B118220021043008F088FD2D0BB7
:108AD0000123237101A90848C4F80080A760E5605C
:108AE0006661FFF712FCFFF7D1FF002002B0BDE87E
:108AF000F0810420FAE700BF402F00202DE9F34168
:108B000080460F460F4801A916461D46FFF7D3FBC6
:108B10000446A8B118220021043008F060FD089B2B
:108B2000A36001A9C4E903670648C4F80080656131
:108B3000FFF7EBFBFFF7AAFF002002B0BDE8F081D2
:108B40000420FAE7402F00202DE9F84FB0F806A0E6
:108B50004579D2F800B09DF828900AFB05F5043D50
:108B600088460BEB0301A94203F1040488BFA5EB7F
:108B7000030BB4FBFAF607460AFB1644C2F800B032
:108B80004EB9AAEB04055D4528BF5D46BBF1000F59
:108B900004D1BDE8F88F3F68013EF1E7043408EBEB
:108BA00006003C442A46B9F1000F0DD02146ABEB3C
:108BB000050B08F0EBFCDA452E443F6855464FF0B4
:108BC000000428BF5D46E1E701462046EFE7FFF7D6
:108BD000A6BCF8B546790146721E054600239342AD
:108BE0002D6803D30024A64202D8F8BD0133F6E76E
:108BF0000F682846FFF7CEFC01343946F3E72DE92C
:108C0000F843068ACD1C0746FFF7A0FC043E354416
:108C10000446B5FBF6F5F0B14FF48073EDB28380F6
:108C2000C680013D076081464FF00008A84512D27A
:108C30003846FFF78BFC064648B163790133637110
:108C400008F10108C9F8000007608146EEE72046F8
:108C5000FFF7BFFF34462046BDE8F883012104300A
:108C6000FFF73CBC10B5012104460430FFF742FC7D
:108C7000C0B220B92046BDE81040FFF7AABF10BD22
:108C80001FB503920022009203AAFFF75DFF05B013
:108C90005DF804FB41DF7047064B10B500241C70E3
:108CA000054B1C60BFF35F8F0449054800F008F9CD
:108CB000204610BD742F0020782F00202C44030084
:108CC0006C2F002007B500230DF107008DF8073049
:108CD000FEF7DCF9F1EE103A23F09F03E1EE103AD3
:108CE000BFF35F8F0A4B4022C3F884219DF8070031
:108CF000FEF7F0F908F08AF920B103B05DF804EB53
:108D0000FFF7C8BF20BF40BF20BF03B05DF804FB22
:108D100000E100E0026813685268934291BFD01AE4
:108D200080680130801888BFC01A7047F8B51546B2
:108D30000268176816685268964284BF82680132DA
:108D4000961B0B46C2684168B542044607FB0211F8
:108D50000BD86A43184608F019FCA3683D449D42AD
:108D600088BF002523681D60F8BD06FB02F73A4660
:108D7000184608F00BFCE2686168AD1B6A43384492
:108D800008F004FCEEE7036881681A685B688B42B0
:108D900034BF01330023D31A58425841704773B58A
:108DA000002304460DF107000D468DF80730FEF74D
:108DB0006DF92046FFF7E7FF10B1237C002B3BD174
:108DC0002368A1685E685A688A4234BF0132002273
:108DD0005A6028B11A688A4234BF013200221A60F0
:108DE000E2686368511E072920D8DFE801F004100B
:108DF0001F141F1F1F182A789A552046FFF78AFF55
:108E000023689A68824200D29860002415E02A887C
:108E100023F81620F1E72A6843F82620EDE7D5E984
:108E2000000103EBC603C3E90001E6E7294602FBA4
:108E3000063008F0ABFBE0E704249DF80700FEF7DE
:108E400049F9204602B070BD7FB505460191144630
:108E5000AAB10DF10F0000268DF80F60FEF716F98C
:108E60002846FFF757FFA04201990BD32246284618
:108E7000FFF75CFF34469DF80F00FEF72BF9204604
:108E800004B070BD0524F6E737B5054600240DF1A2
:108E900007008DF80740FEF7F9F82B681C609DF875
:108EA00007005C609C60FEF715F903B030BD836875
:108EB00000225A60C3E904229A60DA601A6070479F
:108EC0000B684A684360934208BF0023016008BFF3
:108ED00043607047436843B10268916852680B442D
:108EE0009342436004BF00234360704770B54468F9
:108EF00006460D46206818B1B3682946984718B948
:108F000023682B60256070BD2468F3E74368186808
:108F100008B102681A607047436818687047436870
:108F2000186800B97047884203D102681A600120AE
:108F3000704703460068F4E710B50D49A1F5947237
:108F4000914201D800200FE08C1AE30F03EBE403F9
:108F50005B1002EBC30452F83330834205D802D2CF
:108F600004F10802ECE7606810BD2146E8E700BFA5
:108F70003849030008B5FFF7DFFF024B002808BFA0
:108F8000184608BDFB4703000B7B23B14B68036009
:108F90000023037170470B6803600123F9E703683E
:108FA0004A68896810B5D41A8C428BBF5B180023BD
:108FB0000360026098BF037110BD03680A68896886
:108FC00010B59C1A8C428BBF5B1A012303600260B0
:108FD00098BF037110BD037910B504461BB1FFF7AC
:108FE000DEFF206810BDFFF7E8FFFAE738B5074C51
:108FF000051E04F1080318BF1C4623682BB11A682C
:1090000022605B6828469847F7E738BD842F002028
:1090100020B9054B01225A70FFF7E8BF012802D1A1
:10902000014A9070F8E770477C2F002020B9034B6D
:1090300001225A70FFF7DABF704700BF7C2F002073
:1090400038B50E4C2378B3B90D486360A360236133
:10905000E36000F057F9054607F0D8FF08B900F0C3
:109060005DF901232370074BD3F800340BB10123C2
:10907000A370284638BD8525F5E700BF7C2F00206A
:10908000119002000000014037B50D4C00230DF196
:1090900007008DF80730FDF7F9FFE368013BE36057
:1090A000E36833B9074BD3F8005415B900F048F919
:1090B000A5709DF80700FEF70DF803B030BD00BFA6
:1090C0007C2F002000000140012813B50CD003289C
:1090D00020D038B9134B0122C3F88020BFF34F8F43
:1090E000BFF36F8F02B010BD0F4C00230DF10700CE
:1090F0008DF80730FDF7CAFF23780BB9FFF7A0FF03
:10910000E3689DF807000133E3600123A370FDF7D6
:10911000E1FFE7E700F002F902B0BDE81040FFF719
:10912000B3BF00BF00E100E07C2F002031DF7047BB
:109130001FB500238DF807000DF10F008DF80F30DB
:10914000FDF7A4FF07F062FF50B909480DF10701D0
:10915000FFF725FE0648FFF716FE08B100F04AFBB0
:109160009DF80F00FDF7B6FF05B05DF804FB00BFEA
:10917000F83F030007B520B103280DD003B05DF818
:1091800004FB104B1B78012BF8D100F033FB03B02C
:109190005DF804EB00F036BB00230DF107008DF8FD
:1091A0000730FDF773FF07480378012B05D1064907
:1091B000013000F0DFFA00F00BFB9DF80700FDF72F
:1091C00089FFDBE7E02F00203191020013B5124C3C
:1091D0002378FBB9114A8DF80730002808BF1046E4
:1091E0000288A4F801200DF10700FDF74FFF07F0FA
:1091F0000DFF30B90A49601C00F0BCFA40B900F01C
:10920000E7FA9DF8070001232370FDF763FF0020B4
:1092100002B010BD8520FBE7E02F0020424903008B
:109220003191020007B500230DF107008DF80730DA
:10923000FDF72CFF07F0EAFE18B900F0DBFA00F0AA
:10924000E1FA9DF80700FDF745FF0448FFF71CFE13
:10925000034B00221A7003B05DF804FBF83F0300D3
:10926000E02F00202DE9F7430024DFF85890054651
:109270000E46A0460DF107008DF80780FDF706FFAA
:1092800007F0C4FE074638B9324629464846FFF77C
:10929000DBFD044600F09CFA9DF80700FDF71AFF7D
:1092A00047B131462846FFF741FF42F20703984293
:1092B000044605D0022CDDD0204603B0BDE8F08383
:1092C0000524F9E7F83F0300F8B505460C4604B954
:1092D000F8BD402C264628BF4026F7B2394628461E
:1092E000FFF7C0FF0028F9D1A41B3544EFE700F1D8
:1092F0008040002382B0036003680193019B02B0A9
:1093000070470000044A137923B90121106091804D
:109310001846704785207047E42F0020074B1A68D5
:10932000D20704D4C02283F8002301221A604FF030
:1093300080430122C3F81825704700BF00E100E018
:109340004FF0804208B50223C2F808334FF4827010
:10935000FFF7CDFF0123D360D2F81834DB03FBD431
:1093600008BD00004FF0804110B5D1F8003163B165
:109370004FF48070FFF7BBFF0D4B58790122C1F805
:10938000082310B95A711B6898474FF08042D2F8F1
:10939000043163B14FF48270FFF7A9FF0223C2F8D2
:1093A0000833034BBDE810401B680120184710BD6F
:1093B000E42F002000F1804000F5C040002382B07F
:1093C000036003680193019B02B07047800000F1C5
:1093D000A040D0F8002722F44032C0F80027D0F88F
:1093E000003743EA0141C0F800177047054B4FF0C2
:1093F000FF32072843F8202084BFC01880F8482097
:10940000704700BFEC2F002010B5184991F8583074
:1094100053BB4FF0FF3222FA03F0C00748BFC81811
:1094200003F1010348BF80F83020202BF3D1002442
:10943000E0B20134FFF7DAFF0C2CF9D10C4B00221B
:10944000C0204A6583F80603402018604FF4BE70C0
:10945000FFF7B0FF074B4FF00040C3F804030123B0
:1094600081F85830104610BD0820FCE7EC2F002092
:1094700000E100E000600040034B93F85800003822
:1094800018BF0120704700BFEC2F0020F0B5394E07
:10949000331893F93030002B69DA8D78C5F3400525
:1094A000002D0BBF082300230C240824A34201D164
:1094B0000420F0BD56F82370013743D137185CB251
:1094C00046F8232087F8304015B9F21882F8480092
:1094D0008A78550716D4D70736D5820002F1A04204
:1094E000D2F8005725F00205C2F80057224FC508F0
:1094F00000F0070C012202FA0CF217F805C042EA4C
:109500000C027A558A780D7812F0020225D09B0061
:1095100003F1804303F5C0430002D3F8102522F481
:10952000473222F44072C3F810252D04D3F81025D9
:1095300000F4F85005F4403528431043C3F81005F3
:109540000020B6E70133B1E74D7800F5E0724FF047
:10955000A047AD0047F82250C8E7083C46FA84F41B
:1095600094F8500040EA851584F85050E8E7082048
:109570009FE700BFEC2F00204030002038B5204C82
:10958000251895F93020072A18DD083A44FA82F4A4
:1095900094F850309B09032B0BD14FF0A043D3F824
:1095A0001015C14001F001010231BDE83840FFF75C
:1095B0000DBF012B0CBF02210321F6E7D3B2072B0D
:1095C0001DD8930003F1804303F5C043D3F8100581
:1095D00040F00100C3F8100502F1400040B28000E5
:1095E00080B2FFF7E7FE51B195F9303054F82330DF
:1095F0002BB1012303FA02F2024BC3F8042338BD56
:10960000EC2F0020006000404FF0A043D3F810354D
:1096100023FA00F000F00100704700002DE9F74F39
:1096200000244E4D01944FF48072012102F18043D9
:1096300003F5C04390B21B68012B06D1D5F8043363
:109640000B4202D0FFF7B6FE0C430432B2F5907F16
:109650004FEA4101EAD1414BD3F87C31012B0CD1C7
:109660004FF4BE70FFF7A6FE4FF0A04344F0004455
:10967000D3F820250192C3F82025E3B2D3B1384FA7
:1096800000250126344210D0AB0003F1804303F5DE
:10969000C043D3F81005D3F8101557F8253023B17F
:1096A000C1F30141C0F3042098470135082D4FEA6A
:1096B0004606E7D1002C48DA294D4FF0A048294E44
:1096C0004FF00009012716F9013B5A1C31D0C3F3B2
:1096D000C20208326A44DCB212F8042C03F03F0ADA
:1096E00003F0070307FA03F31A4222D00AF5E073E6
:1096F000504658F82330C3F3014BBBF1020F0CBFA7
:1097000003210221FFF762FE07FA0AF3C8F82035A9
:1097100005EB0A0393F9303055F823304BB1A1091A
:10972000032904D0BBF1020F12D1012901D1504607
:10973000984709F10109B9F1040FC4D1D8F82035CF
:109740000193C8F82035002BB9D103B0BDE8F08FE4
:10975000BBF1030FEDD10229E8E700BF0060004034
:10976000EC2F00203C300020014B1B68184700BF45
:109770004830002010B5124C2378FBB9114B19600A
:10978000037813F0010F104B1EBFD3F8042542F0ED
:109790000102C3F80425D3F8002222F00102C3F825
:1097A00000224378094A5B01DBB282F80D334FF4A3
:1097B0000053136001232370002010BD8520FCE7B7
:1097C000543000205030002000D0004000E100E084
:1097D000074B0022C3F8002182B0D3F80021019288
:1097E000019A0122C3F804231A6002B0704700BF37
:1097F00000D00040024B0122C3F808235A60704792
:1098000000D00040084B0122C3F808235A60074BE0
:109810004FF40052C3F88020BFF34F8FBFF36F8F18
:10982000034B00221A70704700D0004000E100E0B6
:1098300054300020074B0022C3F8002182B0D3F837
:1098400000210192019AD3F80805034B1B68C0B2AE
:1098500002B0184700D0004050300020054A4FF0B9
:10986000A043105CD3F8043523FA00F0C04300F0A5
:109870000100704762490300044B1A5C01239340C6
:109880004FF0A042C2F80C35704700BF6249030098
:10989000044B1A5C012393404FF0A042C2F80835F4
:1098A000704700BF6249030008B50020FFF7F0FFD2
:1098B0000120FFF7EDFF0220FFF7EAFFBDE80840B7
:1098C0000320FFF7E5BF08B50020FFF7D5FF012013
:1098D000FFF7D2FF0220FFF7CFFFBDE808400320CB
:1098E000FFF7CABF074A4FF0A041105CD1F804351A
:1098F0000122824022EA03001340C1F80805C1F8A2
:109900000C35704762490300054A4FF0A043105CD4
:10991000D3F8103523FA00F0C04300F0010070477F
:109920005E4903000D2809D00E2809D00F2809D060
:1099300015280CBF03204FF0FF3070470020704700
:109940000120704702207047014B185C704700BF30
:109950005E490300C20708B501460CD54FF0A0438D
:109960000322C3F84427C3F84827C3F84C27C3F899
:109970005027FFF799FF8B070AD54FF0A0430C2221
:10998000C3F83427C3F83827C3F83C27C3F8542753
:1099900008BD037813F0040216D003F00303012B73
:1099A00003D0022B09D0012070470A6800880232D8
:1099B000C0F3831002440A60F5E70B684288023363
:1099C00003EB92130B60EEE7104670472DE9F04F62
:1099D000DFF81CA187B00F4600230446861C0DF15A
:1099E000070015468DF80730FDF750FBDAF8042024
:1099F0003A60DAF8083003F580739B1A0AF21C47C4
:109A00000AF583690AF21448B3421AD30020002DE4
:109A100069D004F00F039B0143F0050363F30F00CB
:109A2000DAF80430DAB2033233444AF822009DF8FF
:109A30000700CAF80430FDF74DFB012007B0BDE870
:109A4000F08F01213846FEF749FD4846FEF761FDDB
:109A50004046FEF75EFDDAF808000290C0B203301F
:109A60000AEB800002A9FFF794FF029B30BBDAB239
:109A70000AEB8202D16803919A1C0133DBB20AEB34
:109A800083030292D3F80CB001F00303012B22D020
:109A9000022B15D083464046FEF73EFD10B1029BD7
:109AA000CAF8083059463846FEF718FDDAF808308B
:109AB000DAF8042003F580739B1AA5E7D8B2CEE745
:109AC000BDF80E30C3F3891303334FEA1B4B02EB8F
:109AD00093030293DFE7BDF80C30C3F383134FEA1F
:109AE0001B4B1344F5E7A40544F0060098E700BFBC
:109AF00028310020064B074810B500221A70FFF7E6
:109B000066F8044610B90448FFF7D1F9204610BDA5
:109B1000283100203C4003007C490300034BD3E97B
:109B20000130C31A58425841704700BF2831002005
:109B30002DE9F04186B0FFF7F1FF0546002840F01F
:109B4000ED80774CC4F81804BFF34F8FA3680293DD
:109B5000DBB2033304EB830002A9FFF71AFF029B79
:109B600018B1D4F81824002A5AD0DAB2991C01335B
:109B700004EB8202DBB204EB8303D268DB6804935C
:109B800002F00303022B0392029154D1BDF80E3070
:109B90006448C3F38917502F3E4628BF502606F16C
:109BA000080166F38F13C1F30901ADF80E30FFF71A
:109BB00026F80546002800F09C80FFF74FF80023A8
:109BC000082203A92846FFF75BF80299CB43DBB2D2
:109BD0000133C9B20331B6EB830F4FEA830204EBC2
:109BE000810125D95FFA82F80823A6EB08062846EA
:109BF000FFF746F8F6B208F108034B4903F0FC03FF
:109C000032462846FFF73CF8029B033703EB9707E1
:109C10000297D4F81834002B43D1D4F8106453E0E1
:109C200062689A4294D8A260284606B0BDE8F081E6
:109C300008233246E5E7012B5BD1BDF80C303948EB
:109C4000C3F38311062928BF062161F3891302316A
:109C500001F00F018900ADF80C30FEF7D0FF05468A
:109C6000002846D0FEF7FAFF0023082203A9284661
:109C7000FFF706F80026BDF80C20C2F38312B300EC
:109C8000964203F10803C4D202994A1CC9B20331B7
:109C9000029204EB810104222846FEF7F1FF01360F
:109CA000E9E72846FEF7DEFFFFF738FF80F0010006
:109CB000C5B2B9E7F3685B7923B1336829461B68FD
:109CC00030469847F3681E68002EF3D12846FEF709
:109CD000C9FF0DF107008DF80760FDF7D7F9D4F83B
:109CE00018340BB9029BA3609DF80700FDF7F2F949
:109CF000DAE7D4F8104454B90C4B0D480D49C01A9A
:109D0000C008000440F0020000F05CF8CCE72368D3
:109D100020469B689847E3681C68ECE7002583E7CA
:109D2000283100203C40030034310020584003001B
:109D300080400300664903002DE9F34704460E46C0
:109D4000924601A9012218469946FFF73FFE1B4F94
:109D500010B3019D4FF00008AA1CC84508EB020192
:109D600023D117480021FEF772FB80F31000000496
:109D700040EA1440E4006B1C04F03804DBB2EDB29E
:109D800044F0010407EB8303033544EA881444EAF2
:109D90008624D86047F825403B781BB1FFF7C8FE02
:109DA0000028FBD102B0BDE8F087C9B207EB810102
:109DB0005AF82830CB6008F10108CEE7283100209E
:109DC0004435002000231A46FFF7B6BF07B501232C
:109DD000019201AAFFF7B0FF03B05DF804FB07B5DD
:109DE000CDE9002302236A46FFF7A6FF03B05DF822
:109DF00004FB1FB5CDE90123069B039301AA0323AE
:109E0000FFF79AFF05B05DF804FB1FB5CDE900230D
:109E1000069B0293079B03936A460423FFF78CFF7C
:109E200005B05DF804FB7FB5CDE90123089B0393E2
:109E3000099B04930A9B059301AA0523FFF77CFF66
:109E400007B05DF804FB000038B5084B0125D3F8D6
:109E500010441D7004B938BDE3685D712368204665
:109E60005B689847E3681C68F4E700BF283100206E
:109E70004FF48C72002107F0B2BB18B14FF48C7113
:109E800000F0E2BE70470000C02AF0B541D0B2F544
:109E9000807F40D0802A40F0C5800A2304460360BA
:109EA00000F10803520944F8043F01EB82028A42A0
:109EB00033D103680C2B3ED00E2B6CD00A2B26D14D
:109EC0005A4D5B4900F1A006426955F8044B87687A
:109ED000C2F307237C40CB5C6340140E10300C5D52
:109EE00083EA0443D4B20C5D83EA0463C2F30744FB
:109EF0000C5D83EA042350F8044C836063400468DB
:109F0000C36063400361534043618642DCD100205B
:109F10008AE00C23C2E70E23C0E78B784D781B0440
:109F200043EA05230D782B43CD7843EA056344F8D3
:109F3000043F0431BBE73D4C3D4900F1C005C26917
:109F400054F8046B8768C2F307237E40CB5C7340F0
:109F5000160E18308E5D83EA0643D6B28E5D83EA14
:109F60000663C2F307468E5D83EA062350F80C6C45
:109F70008360734050F8086CC360734050F8046C01
:109F80000361734006684361734083615340C3615A
:109F90008542D4D1BBE7254D254900F1E006446A4E
:109FA00055F8042B8768C4F307237A40CB5C876994
:109FB0005340220E20308A5C83EA0243E2B28A5C7C
:109FC00083EA0263C4F307428A5C83EA022350F8FF
:109FD000142C8360534050F8102CC360534050F849
:109FE0000C2C03615340DAB243618A5C7A401F0E45
:109FF000CF5D82EA0762C3F30727C3F30743CF5D50
:10A00000CB5C82EA072282EA034350F8042C836186
:10A0100053400268C3615340036263404362864217
:10A02000BDD174E76FF01F00F0BD00BF885A030078
:10A03000884903002DE9F04F97B043680D680E95ED
:10A040001C68A74FA74E6C400E945D684C686C402E
:10A050000F949D688C68C9686C40109403F11004DB
:10A06000DB68A14D00944B40119303680D945B1085
:10A070000393013B04930193002320460293DDE9FF
:10A080000EE1C1F30723DDF840C057F823300693F3
:10A09000CCF30743CCF3072856F823300793119BE2
:10A0A00057F828400894C3F307484FEA1C6956F84C
:10A0B00028400994C3F307285FFA8CFC57F828401E
:10A0C0000A94CEF30748203056F828400B94CEF37C
:10A0D000072857F828400594C1F30748834C56F8E1
:10A0E00028B054F829A05FFA83F84FEA116955F8AF
:10A0F0002880C9B288EA0A0A55F82C8054F829C089
:10A1000055F821104FEA1E6988EA0C0854F829C056
:10A110005FFA8EFE81EA0C014FEA136C55F82E307F
:10A1200054F82C9083EA0909019B002BDDE90634E1
:10A1300083EA04030693DDE9084384EA030CDDE9BE
:10A140000A3483EA040E00F3D580049B009C580176
:10A15000039B002B029BD8BF0020044403B10D9445
:10A160000D9E069B3068B5687468434083EA090712
:10A17000F36812978BEA0A0B8BEA030B059B8EEAB6
:10A18000050585EA08088BEA030B594DCDF854B054
:10A19000FBB28CEA040CEC5C3369CDF850805C4077
:10A1A0004FEA1B638CEA0101EB5C139184EA0364C0
:10A1B000C1F30723C7F30729EB5C84EA0324C8F340
:10A1C0000743EB5C84EA0344CBB20E94E85C73690A
:10A1D00058403B0EEB5C80EA0360C8F30723EB5C5E
:10A1E00080EA0320CBF30743EB5C80EA03405FFA8D
:10A1F00088F34FEA186815F803A0B3690F908AEA4C
:10A20000030A0B0EC1F30741EB5C8AEA036ACBF346
:10A2100007235FFA8BFBEB5C8AEA032AC7F3074349
:10A22000EB5C8AEA034A06F120030D93F66915F800
:10A230000B30CDF840A0734015F80860695C1470CD
:10A2400083EA066315F80960107183EA062383EA3E
:10A250000143210A5170210C9170010A5171010CC6
:10A2600091714FEA1A2151724FEA1A4191724FEAE5
:10A270001A61D172190A137351731193190C240EB8
:10A280001B0E000ED0719173D47082F808A0D373A6
:10A290000EA8042100F0D8FC0FA8042100F0D4FC83
:10A2A00010A8042100F0D0FC11A8042100F0CCFC7F
:10A2B00012A8042100F0C8FC13A8042100F0C4FC7B
:10A2C00014A8042100F0C0FC15A8042100F0BCFC77
:10A2D0000DA8042100F0B8FC002017B0BDE8F08FF5
:10A2E000884E030088520300884A03008856030002
:10A2F0008849030050F8204C069B634083EA090319
:10A30000129350F81C4C8CEA040C8CEA010CCDF82A
:10A310004CC050F8181C059C8EEA010181EA080126
:10A32000149184EA0B0B50F8144C8BEA040B8BEA63
:10A330000A0A3C4CCDF854A05FFA83F84FEA1A6E33
:10A3400055F8288054F82EE050F8104C88EA0E0E8C
:10A35000CCF307288EEA040E57F82880314C8EEA99
:10A36000080EC1F3074856F828808EEA080ECDF88B
:10A3700038E05FFA8CF84FEA136E55F8288054F8ED
:10A380002EE050F80C4C88EA0E0EC1F307288EEA36
:10A39000040E57F82880234C8EEA080ECAF30748AB
:10A3A00056F828808EEA080ECDF83CE05FFA81F876
:10A3B0004FEA1C6E55F8288054F82EE050F8084CEF
:10A3C00088EA0E0ECAF307288EEA040E57F8288092
:10A3D000144C8EEA080EC3F307485FFA8AFA56F85F
:10A3E00028808EEA080E4FEA1168CDF840E055F853
:10A3F0002A1054F828E0C3F3072381EA0E0E50F820
:10A40000041C57F82330CCF3074C8EEA0101594065
:10A4100056F82C305940019B1191013B01930123C7
:10A4200002932CE6885603002DE9F04F97B043685D
:10A430000D680E951C68DFF8A8E2DFF8A8C2A54FEA
:10A440006C400E945D684C686C400F949D688C68FD
:10A45000C9686C40109403F11004DB6800944B4011
:10A46000119303680D945B100293013B25460393FF
:10A4700001930024DDF8448010980E99C8F3072357
:10A48000C1F307295EF823300693C0F307435EF853
:10A4900029605CF823300793C8F307490F9B08969F
:10A4A0005CF829600996C3F307294FEA116A5EF840
:10A4B00029600A96C1F30749C9B25CF829600B9676
:10A4C000C0F3072920355EF829600496C3F30749D5
:10A4D0005CF8296005965FFA88F97F4E57F8299055
:10A4E00056F82AB04FEA186889EA0B0B5FFA80F930
:10A4F00056F8288057F82990000E89EA08085FFA74
:10A5000083F956F8200057F829A04FEA13698AEA20
:10A51000000A57F8213056F829005840019B002BBB
:10A52000DDE9063183EA0103DDE9081681EA06095F
:10A53000DDE90A1681EA060100F3D680029E039D3A
:10A54000002E009E4FEA4515D8BF00252E4404B1C9
:10A550000D960D9F3C68BE687D6863405840059B22
:10A56000129083EA0B0BFB688BEA030B049B714090
:10A570008BEA030B594ECDF854B0C3B289EA0505F6
:10A5800016F803E03B6985EA0A058EEA030E2B0EF6
:10A5900081EA0804F35C13958EEA036ECBF307237C
:10A5A0001494F35C8EEA032EC4F30743C4F3072824
:10A5B000F35C8EEA034EEBB2CDF838E016F803C038
:10A5C0007B698CEA030C230EF35C8CEA036CC0F30A
:10A5D0000723F35C8CEA032CCBF30743F35C8CEA90
:10A5E000034CE3B2CDF83CC0F15CBB6959404FEA83
:10A5F0001B635FFA8BFBF35C81EA0361C5F30723FE
:10A60000C5F30745F35C81EA0321C0F30743000E5D
:10A61000F35C81EA034107F120030D93FF6916F80B
:10A620000B301091305C11727B4083EA006316F8A6
:10A63000080082F800E083EA0023705D82F804C01D
:10A6400083EA00434FEA1E2050704FEA1E4090708C
:10A650004FEA1C2050714FEA1C4090714FEA1C6079
:10A66000D071080A5072080C090ED172190A4FEA0B
:10A670001E64137351731193190C1B0E9072917316
:10A68000D470D3730EA8042100F0DEFA0FA80421C1
:10A6900000F0DAFA10A8042100F0D6FA11A804217B
:10A6A00000F0D2FA12A8042100F0CEFA13A8042177
:10A6B00000F0CAFA14A8042100F0C6FA15A8042173
:10A6C00000F0C2FA0DA8042100F0BEFA002017B075
:10A6D000BDE8F08FB05B0300B0670300B05A030021
:10A6E000B05F0300B063030055F8204C6340434063
:10A6F000129355F81C0C89EA000080EA0A001390B6
:10A7000055F8184C4C40DDE9041684EA080414940A
:10A71000714055F8146C5FFA83F971404FEA106884
:10A72000394E57F8299056F8288081EA0B01159187
:10A7300089EA0808C1F3072955F8106C5EF82990DA
:10A7400088EA060888EA0908C4F307492E4E5CF82F
:10A75000299088EA0908CDF838805FFA80F94FEA35
:10A76000146857F8299056F8288055F80C6C89EA37
:10A770000808C3F3072988EA06085EF82990224EE4
:10A7800088EA0908C1F307495FFA81FB5CF8299060
:10A7900088EA0908CDF83C805FFA84F94FEA11682D
:10A7A00057F8299056F8288055F8086C164989EA18
:10A7B0000808C0F3072988EA06085EF8299088EAA5
:10A7C0000908C3F30749C4F307245CF8299088EA11
:10A7D0000908CDF840804FEA136857F82B3051F83C
:10A7E0002810594055F8043CC0F307404B405EF830
:10A7F00024104B405CF820104B401193019B013B0F
:10A800000193012436E600BFB067030010B40C4684
:10A81000012C11461A4603D15DF8044BFFF70ABC20
:10A820005DF8044BFFF700BE2DE9F04FB2F5C07F95
:10A83000ADF5417D06468846144600F2C3804FF4CC
:10A84000D072002158A812AD06F0C9FE2846FFF7C5
:10A850000FFB230A8DF8723120238DF877315EAB20
:10A8600000272246184641468DF870718DF87171A7
:10A870008DF8734106F08AFE8022025502AA3B46FB
:10A88000934602F8013B0133102BFAD1802259463E
:10A890002846FFF7F9FA0346002872D11934074613
:10A8A0000DF1280A1022002106A806F098FEA14604
:10A8B0000DF5B07806AA08F1FF3308F10F00117802
:10A8C00013F801CF81EA0C01834202F8011BF6D193
:10A8D00006ABB9F1100F1A464FF00101284694BF9C
:10A8E000A9EB0909A9F11009FFF790FF08F1100879
:10A8F0000346002845D1B9F1000FDBD10DF1180C4A
:10A9000007EB0A02634603CB5345106051609C4637
:10A9100002F10802F6D19DF8633110370133202F80
:10A920008DF86331BED1802251462846FFF7ACFA3C
:10A93000034630BB0EAB1A4601212846FFF766FFDF
:10A940000346F0B90EAC3246234603CBAB4210604F
:10A9500051601C4602F10802F6D10EAB1A460121E5
:10A960002846FFF753FF06F11004034648B90EAA24
:10A97000174603CFAF42206061603A4604F10804F5
:10A98000F6D128460193FFF778FA4FF4D07158A812
:10A9900000F05AF920210AA800F056F91021584673
:10A9A00000F052F9102106A800F04EF9019B23B1E6
:10A9B0002021304600F048F9019B18460DF5417DF5
:10A9C000BDE8F08F6FF03703F7E72DE9F04389B06A
:10A9D00004460E4620220021684606F000FE0027AD
:10A9E00004F12009E8460DEB070304F10F010A7892
:10A9F0000132D2B2084601F801290AB9A042F6D1C3
:10AA0000224601214846FFF701FF0546F8B91037F5
:10AA1000202FE7D1731E1F3698F8002013F8011F6E
:10AA20004A40B34208F8012BF6D1802269464846D5
:10AA3000FFF72AFA054650B904AA08AE134603CB1D
:10AA4000B342206061601A4604F10804F6D16846FA
:10AA5000202100F0F9F8284609B0BDE8F0834FF452
:10AA6000A072002106F0BBBD10B5044648B12030ED
:10AA7000FFF703FA20464FF4A071BDE8104000F044
:10AA8000E3B810BDF0B58669B6F5C07FE1B0054604
:10AA90000F46144632D8C6F5C07393422ED34FF4F6
:10AAA000C0720021684606F09AFDD5F83831D5F815
:10AAB0003C0132466946984718BBAE693FB134B194
:10AAC0000DEB06002246394606F060FD264432466C
:10AAD00069466846FFF7A8FE044638B96946284625
:10AAE000FFF773FF044608B901232B614FF4C071CF
:10AAF000684600F0A9F8204661B0F0BD6FF0370459
:10AB0000F9E76FF03304F6E7F0B587B004460F4677
:10AB100016460021102202A81D4606F060FD04F131
:10AB200020000190FFF7A4F9A3690198C4E94E76CB
:10AB30000BB92023A3614FF6F073E361802202A9D1
:10AB4000FFF7A2F920B90C9A29462046FFF79AFF91
:10AB500007B0F0BD2DE9F0418CB0B2F5806FDDF8A3
:10AB6000488005460F4616461C465ED8B8F5807FDD
:10AB70005ED82022002104A806F031FD2A69EB6985
:10AB80009A4201DC6B699BB1214642462846FFF799
:10AB900079FF044628BB05F1200836BB04A92846E6
:10ABA000FFF713FF0446A0B92B6901332B6110E0B6
:10ABB000B8F1000FEFD02146424604A8FFF734FE5B
:10ABC000044630B904A92846FFF7FFFE04460028D2
:10ABD000E1D0202104A800F037F81021684600F0E9
:10ABE00033F820460CB0BDE8F08105F10F02137870
:10ABF0000133DBB2114602F801390BB9A942F6D193
:10AC00006B462A4601214046FFF700FE0446002815
:10AC1000DFD1102E344628BF10243846224669461C
:10AC200006F0B4FC2744361BB7E76FF03504D8E7CD
:10AC30006FF03704D5E707B500230093FFF78AFFCD
:10AC400003B05DF804FB00000A4619B1024B002175
:10AC50001B681847704700BFEC2B002028B139B1A2
:10AC60000023C1E900301846704748F21050704781
:10AC700048F21350704730B1036848F240508B429D
:10AC800008BF0020704748F21050704730B119B12A
:10AC90000B68934205D30A600020704748F21350B6
:10ACA000704748F2145070472DE9F0410C4600AF50
:10ACB00080461146204615461E46FFF7CFFF00BBD3
:10ACC00031462046FFF7CAFFD8B92279104B53F816
:10ACD0002230CBB1B8F1000F0AD10E4931F8124041
:10ACE00034B107346A46E408A2EBC4029546E8464C
:10ACF000324629464046984718B9074B2B60063B19
:10AD00003360BD46BDE8F08148F20350F9E700BF6B
:10AD1000B86B0300B06B03007652464D70B5054624
:10AD20000C461E46FFF79AFF70B9AB796AB1B34281
:10AD30000ED12979094B53F8213063B111462046D1
:10AD4000984708B9064B236070BD48F21050FBE7E6
:10AD500048F21150F8E748F20350F5E7C46B0300DE
:10AD60007052464D2DE9F0410D460D4904461646F8
:10AD7000FFF781FF90B967683146BA792846FFF737
:10AD800085FF58B93A79074B53F8223023B1294649
:10AD90002046BDE8F041184748F20350BDE8F08175
:10ADA0007052464DD06B0300F0B530B14079B3B16D
:10ADB000C9B18AB948F2135313E01846F7E7441EA5
:10ADC00000254E5D0F5D575516550135013CA542D6
:10ADD000F7D91B1A014402448342F0D20BB148F266
:10ADE00011531846F0BD48F21053FAE72DE9F84325
:10ADF0000D4600AF04461D49284616469846FFF703
:10AE00003AFF48BB1A493046FFF735FF20BBD5F85B
:10AE100004907368994522D199F80520396A404613
:10AE2000FFF734FFC0B999F80430124A52F8239062
:10AE3000B9F1000F16D054B90F4A32F8133033B1BC
:10AE400007336A46DB08A2EBC3039D466C464346C4
:10AE5000324629462046C847BD46BDE8F88348F239
:10AE60004150F9E748F20350F6E700BF7652464DED
:10AE70007052464DDC6B0300E46B0300F8B50A4FDB
:10AE80000A4C0B4EE41B0123E40833700025A54255
:10AE900003D1022333700020F8BD57F835309847AE
:10AEA0000028F9D10135F2E7504003005840030073
:10AEB000E0350020054B1A78022A04D01878431E8A
:10AEC0005842584170470120704700BFE0350020CC
:10AED00030B50023934201D1012006E0C55CCC5C73
:10AEE000A54203D08CBF0120002030BD0133F1E723
:10AEF0002DE9F74F9DF830B01746054688461E46A7
:10AF0000002296424FEAC2094DD1FF2309F10802FF
:10AF10005B0033F0FF0103D109F101094A45F7D184
:10AF2000002D45D0002E46D0B8F1000F46D0002F9E
:10AF300044D0324641463846FFF7CAFF002840D089
:10AF400009F007030093009AFF2313415BB24FEA15
:10AF5000D90A019305EBD9091B485B4600683246C4
:10AF60002946FBF723FD0446C8B901465246284648
:10AF700006F035FB009B2BB199F80020019B1A408D
:10AF800089F80020324641462846FFF7A1FF0028F5
:10AF9000E2D029463846FFF79BFF0028DCD0204648
:10AFA00003B0BDE8F08FBB5C002BAFD10132A8E746
:10AFB00048F21354F3E748F21454F0E748F21054FF
:10AFC000EDE748F21754EAE73037002013B50124C3
:10AFD0000094FFF78DFF02B010BD000070B506466B
:10AFE0000D466A46194B9A4205D3FFF763FF78B9BD
:10AFF0004FF4054070BD164B16481749C01AC008DB
:10B00000000440F00100FEF7DDFE48F21950F1E7C0
:10B01000124C236823B1124B1A68124B9A420FD07C
:10B0200086B97DB9104811492060FBF79BFC0028C8
:10B03000E0D10B4B0B4A1A6023680D4A1A60D9E71E
:10B040000020D7E748F21750D4E700BF00E0002007
:10B050005840030080400300E86B030030370020B5
:10B06000283700206572E54BE43500202C3700209E
:10B070006169614D094B0A4A196891420AD1094A2E
:10B080001068094A0168914204D1002202601A60E6
:10B09000FBF784BC48F20250704700BF28370020FD
:10B0A0006572E54B303700206169614D10B56C4623
:10B0B000154B9C420FD3DAB9144B1C68144B9C42BD
:10B0C0001BD1E8B913481346BDE810400A46006892
:10B0D0001149FBF773BC114B11481249C01AC00843
:10B0E000000440F00100FEF76DFE48F2195010BD5B
:10B0F0000029E1D148F21050F9E748F20250F6E792
:10B1000048F21750F3E700BF00E000202837002086
:10B110006572E54B303700202C3700205840030083
:10B1200080400300E86B030073B513460D460446E8
:10B13000F8B111B3144A1168144A914220D1144E47
:10B1400001932A4601463068FBF730FC48F2715201
:10B15000904210D1002211461046FFF7A7FF50B9C8
:10B16000019B30682A46214602B0BDE87040FBF7DB
:10B170001DBC48F2135002B070BD48F21450FAE7FB
:10B1800048F20250F7E700BF283700206572E54B10
:10B19000303700200122FFF7C7BF33DF704776DF6B
:10B1A000704778DF70477ADF70477CDF70478FDF4A
:10B1B0007047FBF77FBD08B50020FBF7A1FA08B187
:10B1C000FBF778FDFBF77EFB08B1FBF773FDFFF79C
:10B1D000E4FF18B1BDE80840FBF76CBD08BD0000F6
:10B1E000034B0448197881F00101197005F01DBE68
:10B1F000C03C0020083C002010B51249124C1348F6
:10B20000FDF7E9FE236881B201331148236005F0A0
:10B21000C8FD30F0080209D020F00202112A05D042
:10B2200043F20142904201D0FBF744FD094A2368F2
:10B230005343B3F1553F084A94BF002301231370D1
:10B2400010BD00BFCC3B002034370020DC3B002089
:10B25000083C0020ABAAAAAAFE2B002008B50D4985
:10B260000D48FDF7B8FE4FF6FE72C1B20B4805F06F
:10B270004FFB30F008020BD020F00202112A07D059
:10B2800043F20142904203D0BDE80840FBF712BDF3
:10B2900008BD00BF803B0020903B00206C3B00209D
:10B2A00010B50388212B86B004460FD80F2B11D977
:10B2B000103B112B0ED8DFE803F00F2C0D0D0D0DF8
:10B2C0000D4F5C630D0D0D0D0D0D0D3C3B2B3ED058
:10B2D000562B3CD006B010BD354B36483649C01A07
:10B2E000C008000440F00300FEF76CFD0720FBF7E8
:10B2F00007FA08B1FBF7DEFC304BA1883048198013
:10B3000003F03AF80028E5D006B0BDE81040FBF79E
:10B31000D1BC274B2748227A2A49C01AC00800040A
:10B3200040F00300FEF752FD244B4FF6FF721A80E7
:10B33000D0E7002380888DF8143005A98DF81530EA
:10B34000FFF735FF0028C5D0FBF7B4FCC2E7A088A3
:10B350001321FFF724FFD5E71648154B1A49C01AE9
:10B36000C008000440F0030006B0BDE81040FEF73E
:10B3700029BD10480E4B1549C01AC0080004F1E75A
:10B38000437A0B4A0B481249801A627B0292227B55
:10B390000192A27AC008C2F3C00200040092C3F373
:10B3A0008003227A40F00300FEF73DFD92E700BFE4
:10B3B0005840030080400300016C0300FC2B002078
:10B3C000583C00200C6C0300256C0300426C030009
:10B3D000616C03000A8840F677239A4210B50C4648
:10B3E0000BD1094B09484A88C01AC00800048B8851
:10B3F000074940F00300FEF7F2FC21460548BDE88E
:10B40000104005F015BD00BF584003008040030008
:10B41000B76C0300083C002008B503784BB9054B16
:10B420003B211888FFF7BBFE18B1BDE80840FBF7C9
:10B4300041BC08BDFC2B0020072808B513D00A2802
:10B440000DD0042819D10D4B13211888FFF7A7FE42
:10B4500030F0080311D0BDE80840FBF72BBCBDE875
:10B460000840FFF7A8BE054B1A884FF6FF739A42B3
:10B4700003D1034801F09FF9EAE708BDFC2B002047
:10B480003837002008B598B1032815D10B4B0C486C
:10B490000C49C01AC008000440F00300FEF792FCFB
:10B4A0000220FBF72DF938B1BDE80840FBF702BCDC
:10B4B000BDE80840FFF77FBE08BD00BF584003004D
:10B4C00080400300E66C030008B51B4B1B78002B83
:10B4D00031D01A491A48FDF77EFD81B2194805F0AE
:10B4E0008CFC16491648FDF776FD81B2154805F02B
:10B4F00084FC12491248FDF76EFD81B2114805F037
:10B500007CFC0E490E48FDF766FD81B20D4805F042
:10B5100074FC0A490A48FDF75EFD81B2094805F04E
:10B520006CFC06490648FDF756FDBDE8084081B2AF
:10B53000044805F062BC08BDFE2B0020643C0020DE
:10B54000743C0020083C002008B50548032100F0A9
:10B55000F3FF18B1BDE80840FBF7ACBB08BD00BF66
:10B560003837002010B5044604F02CFA204604F0C9
:10B5700007F823780C2B03D1BDE81040FFF7E4BF98
:10B5800010BDFBF797BB000008B580B10A4B0B4814
:10B590000B49C01AC008000440F00300FEF712FC7B
:10B5A00003F07AFD38B1BDE80840FBF783BBBDE886
:10B5B0000840FFF7C9BF08BD5840030080400300A2
:10B5C000F86C030080B54FF48041B6B00020FEF760
:10B5D00091FA08B1FBF76EFBFBF72AFC08B1FBF709
:10B5E00069FBB54AB5480121FBF754FC08B1FBF7EC
:10B5F00061FBB34AB3480121FBF74CFC08B1FBF7F0
:10B6000059FBB14AB1480121FBF744FC08B1FBF7F3
:10B6100051FBAF4AAF480121FBF73CFC08B1FBF7F7
:10B6200049FBAD490320FBF777F808B1FBF742FB74
:10B630000BA90020FBF756F908B1FBF73BFB9DF87F
:10B640002C40A51E6C426C41FDF726FB08B1FBF7B0
:10B6500031FB05F05DFC08B1FBF72CFB00230BA9C7
:10B6600001200B9305F026FD08B1FBF723FB0BA887
:10B6700005F0DEFD08B1FBF71DFB112397498DF89E
:10B680001C300A2207A8FFF790FD08B1FBF712FB58
:10B6900040F24130FFF785FD08B1FBF70BFB0023BB
:10B6A000ADF830304FF4A073ADF82C304FF4027386
:10B6B000ADF82E300BA84FF4C873ADF83230FFF759
:10B6C00072FD08B1FBF7F6FA8549864802F0AEFB39
:10B6D00008B1FBF7EFFA0021AC220BA805F07FFFC1
:10B6E00002238DF82C3040F20163ADF82E30032395
:10B6F000ADF83C307C4B109301234FF496708DF8DD
:10B70000A83044F25063CDE92D030BA9774B78485C
:10B71000349300F094FE08B1FBF7CCFA7448012191
:10B7200000F08AFE734B7448029302A902F012FEE5
:10B7300008B1FBF7BFFA03230021102203A88DF8FC
:10B74000073005F04CFF01238DF810300DF1070391
:10B7500005936A4840F2011303A9ADF8183005F0CB
:10B76000B2FA08B1FBF7A6FA0023CDE90733099333
:10B7700001238DF8203003F10133623360480A93CE
:10B7800007A905F051F808B1FBF794FA402200210F
:10B790000BA805F024FF0BA85A4901F00AFB01236E
:10B7A0000BA88DF8683005F043F908B1FBF782FA71
:10B7B00055495648512301266427C1E900378E6058
:10B7C0000E73FDF7E1FB524952488C224FF49673F9
:10B7D000C1E9002300250A238B600D73FDF7D4FB1C
:10B7E0004D494E480F604FF4FA73C1E901360D73AD
:10B7F000FDF7CAFB294614220BA805F0F0FE4FF412
:10B80000F0234FF4A031CDE90C1303238DF8383029
:10B810003A4B9B89ADF83A30414B10930BA8414B02
:10B82000119301F0E7F808B1FBF744FA03F06EFB5F
:10B8300008B1FBF73FFA35238DF82C3007238DF83C
:10B840002D3010238DF82E300BA803238DF82F30C8
:10B850008DF8303003F0F4FB08B1FBF72BFA3248D7
:10B8600003F0D6FB08B1FBF725FA304B30483149DD
:10B87000C01AC008000440F00300FEF7A3FA2E48E7
:10B8800000224FF40041FBF710FB08B1FBF712FA5E
:10B890002A4800224FF48041FBF707FB08B1FBF771
:10B8A00009FA2748002241F23331FBF7FEFA00285B
:10B8B00048D0FBF7FFF945E05DB20200486D030098
:10B8C000F9B102004C6D0300C9B40200506D0300D1
:10B8D000E1B10200546D030039B40200056D0300AC
:10B8E000D5B30200B83B0020F02B002085B4020045
:10B8F00038370020B3B10200583C0020083C00203B
:10B900006C3B0020106D0300803B0020903B00202A
:10B91000CC3B0020DC3B0020643C0020743C002039
:10B9200019B4020083B5020065B502005840030057
:10B9300080400300246D0300983B0020E83B00207A
:10B94000803C00200B4800224FF4A031FBF7ADFAF9
:10B9500008B1FBF7AFF92046FFF716FE02F0FEFB39
:10B9600008B1FBF7A7F9FEF7E3F80028F6D1FDF7D9
:10B97000A9F9F3E7A03C00204FF08053D3F8300141
:10B98000421C04BF4FF0704393F8E00F831F5842EE
:10B99000584170474FF0704393F8E02F062A09D1C1
:10B9A000D3F8E83FC3F30313033B032B02D8024A47
:10B9B000D05C704700207047606D030008B5FFF74A
:10B9C000DBFF40B14FF080538F4AD3F82433C3F3E9
:10B9D0000423C2F84035FFF7DDFF10B18B4B8C4AD2
:10B9E0005A67FFF7C9FF48B14FF080534FF08042CC
:10B9F000D3F84432C3F34233C2F83C35FFF7CAFFF1
:10BA000030B1844AD2F8FC3023F08073C2F8FC30A5
:10BA1000FFF7B2FF40B14FF080430022C3F80C2182
:10BA2000C3F81021C3F83825FFF7B4FF20B14FF059
:10BA300080430322C3F8A025FFF7ACFF60B1764B2B
:10BA40000522C3F810260122C3F888260022C3F875
:10BA500018263F22C3F814264FF08053D3F8302124
:10BA6000511C09BF4FF07043D3F8343193F8E02FE5
:10BA7000D3F8E83F08BFC3F30313062A4DD1033BB5
:10BA8000032B03D8654AD35C002B46D04FF080527D
:10BA9000634BD2F80414C3F82015D2F80814C3F885
:10BAA0002415D2F80C14C3F82815D2F81014C3F8D2
:10BAB0002C15D2F81414C3F83015D2F81814C3F8A2
:10BAC0003415D2F81C14C3F84015D2F82014C3F86A
:10BAD0004415D2F82414C3F84815D2F82814C3F832
